{
  "_format": "hh-sol-artifact-1",
  "contractName": "OracleRouter",
  "sourceName": "contracts/core/OracleRouter.sol",
  "abi": [
    {
      "inputs": [],
      "stateMutability": "nonpayable",
      "type": "constructor"
    },
    {
      "inputs": [
        {
          "internalType": "address",
          "name": "owner",
          "type": "address"
        }
      ],
      "name": "OwnableInvalidOwner",
      "type": "error"
    },
    {
      "inputs": [
        {
          "internalType": "address",
          "name": "account",
          "type": "address"
        }
      ],
      "name": "OwnableUnauthorizedAccount",
      "type": "error"
    },
    {
      "inputs": [],
      "name": "ReentrancyGuardReentrantCall",
      "type": "error"
    },
    {
      "anonymous": false,
      "inputs": [
        {
          "indexed": true,
          "internalType": "address",
          "name": "oracle",
          "type": "address"
        }
      ],
      "name": "OracleAuthorized",
      "type": "event"
    },
    {
      "anonymous": false,
      "inputs": [
        {
          "indexed": true,
          "internalType": "address",
          "name": "oracle",
          "type": "address"
        }
      ],
      "name": "OracleRevoked",
      "type": "event"
    },
    {
      "anonymous": false,
      "inputs": [
        {
          "indexed": true,
          "internalType": "address",
          "name": "previousOwner",
          "type": "address"
        },
        {
          "indexed": true,
          "internalType": "address",
          "name": "newOwner",
          "type": "address"
        }
      ],
      "name": "OwnershipTransferred",
      "type": "event"
    },
    {
      "anonymous": false,
      "inputs": [
        {
          "indexed": true,
          "internalType": "uint256",
          "name": "requestId",
          "type": "uint256"
        },
        {
          "indexed": false,
          "internalType": "uint256",
          "name": "valuation",
          "type": "uint256"
        },
        {
          "indexed": false,
          "internalType": "uint256",
          "name": "confidence",
          "type": "uint256"
        },
        {
          "indexed": false,
          "internalType": "enum OracleRouter.RequestStatus",
          "name": "status",
          "type": "uint8"
        }
      ],
      "name": "VerificationCompleted",
      "type": "event"
    },
    {
      "anonymous": false,
      "inputs": [
        {
          "indexed": true,
          "internalType": "uint256",
          "name": "requestId",
          "type": "uint256"
        },
        {
          "indexed": true,
          "internalType": "address",
          "name": "owner",
          "type": "address"
        },
        {
          "indexed": false,
          "internalType": "enum OracleRouter.AssetType",
          "name": "assetType",
          "type": "uint8"
        },
        {
          "indexed": false,
          "internalType": "string",
          "name": "location",
          "type": "string"
        },
        {
          "indexed": false,
          "internalType": "string[]",
          "name": "ipfsHashes",
          "type": "string[]"
        },
        {
          "indexed": false,
          "internalType": "uint256",
          "name": "timestamp",
          "type": "uint256"
        }
      ],
      "name": "VerificationRequested",
      "type": "event"
    },
    {
      "inputs": [
        {
          "internalType": "address",
          "name": "_oracle",
          "type": "address"
        }
      ],
      "name": "authorizeOracle",
      "outputs": [],
      "stateMutability": "nonpayable",
      "type": "function"
    },
    {
      "inputs": [
        {
          "internalType": "address",
          "name": "",
          "type": "address"
        }
      ],
      "name": "authorizedOracles",
      "outputs": [
        {
          "internalType": "bool",
          "name": "",
          "type": "bool"
        }
      ],
      "stateMutability": "view",
      "type": "function"
    },
    {
      "inputs": [],
      "name": "consensusEngine",
      "outputs": [
        {
          "internalType": "address",
          "name": "",
          "type": "address"
        }
      ],
      "stateMutability": "view",
      "type": "function"
    },
    {
      "inputs": [
        {
          "internalType": "uint256",
          "name": "_requestId",
          "type": "uint256"
        }
      ],
      "name": "getRequest",
      "outputs": [
        {
          "components": [
            {
              "internalType": "uint256",
              "name": "requestId",
              "type": "uint256"
            },
            {
              "internalType": "address",
              "name": "owner",
              "type": "address"
            },
            {
              "internalType": "enum OracleRouter.AssetType",
              "name": "assetType",
              "type": "uint8"
            },
            {
              "internalType": "string",
              "name": "location",
              "type": "string"
            },
            {
              "internalType": "string[]",
              "name": "ipfsHashes",
              "type": "string[]"
            },
            {
              "internalType": "enum OracleRouter.RequestStatus",
              "name": "status",
              "type": "uint8"
            },
            {
              "internalType": "uint256",
              "name": "timestamp",
              "type": "uint256"
            },
            {
              "internalType": "uint256",
              "name": "valuation",
              "type": "uint256"
            },
            {
              "internalType": "uint256",
              "name": "confidence",
              "type": "uint256"
            }
          ],
          "internalType": "struct OracleRouter.VerificationRequest",
          "name": "",
          "type": "tuple"
        }
      ],
      "stateMutability": "view",
      "type": "function"
    },
    {
      "inputs": [
        {
          "internalType": "address",
          "name": "_user",
          "type": "address"
        }
      ],
      "name": "getUserRequests",
      "outputs": [
        {
          "internalType": "uint256[]",
          "name": "",
          "type": "uint256[]"
        }
      ],
      "stateMutability": "view",
      "type": "function"
    },
    {
      "inputs": [],
      "name": "owner",
      "outputs": [
        {
          "internalType": "address",
          "name": "",
          "type": "address"
        }
      ],
      "stateMutability": "view",
      "type": "function"
    },
    {
      "inputs": [],
      "name": "renounceOwnership",
      "outputs": [],
      "stateMutability": "nonpayable",
      "type": "function"
    },
    {
      "inputs": [
        {
          "internalType": "enum OracleRouter.AssetType",
          "name": "_assetType",
          "type": "uint8"
        },
        {
          "internalType": "string",
          "name": "_location",
          "type": "string"
        },
        {
          "internalType": "string[]",
          "name": "_ipfsHashes",
          "type": "string[]"
        }
      ],
      "name": "requestVerification",
      "outputs": [
        {
          "internalType": "uint256",
          "name": "",
          "type": "uint256"
        }
      ],
      "stateMutability": "payable",
      "type": "function"
    },
    {
      "inputs": [
        {
          "internalType": "uint256",
          "name": "",
          "type": "uint256"
        }
      ],
      "name": "requests",
      "outputs": [
        {
          "internalType": "uint256",
          "name": "requestId",
          "type": "uint256"
        },
        {
          "internalType": "address",
          "name": "owner",
          "type": "address"
        },
        {
          "internalType": "enum OracleRouter.AssetType",
          "name": "assetType",
          "type": "uint8"
        },
        {
          "internalType": "string",
          "name": "location",
          "type": "string"
        },
        {
          "internalType": "enum OracleRouter.RequestStatus",
          "name": "status",
          "type": "uint8"
        },
        {
          "internalType": "uint256",
          "name": "timestamp",
          "type": "uint256"
        },
        {
          "internalType": "uint256",
          "name": "valuation",
          "type": "uint256"
        },
        {
          "internalType": "uint256",
          "name": "confidence",
          "type": "uint256"
        }
      ],
      "stateMutability": "view",
      "type": "function"
    },
    {
      "inputs": [
        {
          "internalType": "address",
          "name": "_oracle",
          "type": "address"
        }
      ],
      "name": "revokeOracle",
      "outputs": [],
      "stateMutability": "nonpayable",
      "type": "function"
    },
    {
      "inputs": [
        {
          "internalType": "address",
          "name": "_consensusEngine",
          "type": "address"
        }
      ],
      "name": "setConsensusEngine",
      "outputs": [],
      "stateMutability": "nonpayable",
      "type": "function"
    },
    {
      "inputs": [
        {
          "internalType": "uint256",
          "name": "_fee",
          "type": "uint256"
        }
      ],
      "name": "setVerificationFee",
      "outputs": [],
      "stateMutability": "nonpayable",
      "type": "function"
    },
    {
      "inputs": [
        {
          "internalType": "uint256",
          "name": "_requestId",
          "type": "uint256"
        },
        {
          "internalType": "uint256",
          "name": "_valuation",
          "type": "uint256"
        },
        {
          "internalType": "uint256",
          "name": "_confidence",
          "type": "uint256"
        }
      ],
      "name": "submitVerification",
      "outputs": [],
      "stateMutability": "nonpayable",
      "type": "function"
    },
    {
      "inputs": [
        {
          "internalType": "address",
          "name": "newOwner",
          "type": "address"
        }
      ],
      "name": "transferOwnership",
      "outputs": [],
      "stateMutability": "nonpayable",
      "type": "function"
    },
    {
      "inputs": [
        {
          "internalType": "address",
          "name": "",
          "type": "address"
        },
        {
          "internalType": "uint256",
          "name": "",
          "type": "uint256"
        }
      ],
      "name": "userRequests",
      "outputs": [
        {
          "internalType": "uint256",
          "name": "",
          "type": "uint256"
        }
      ],
      "stateMutability": "view",
      "type": "function"
    },
    {
      "inputs": [],
      "name": "verificationFee",
      "outputs": [
        {
          "internalType": "uint256",
          "name": "",
          "type": "uint256"
        }
      ],
      "stateMutability": "view",
      "type": "function"
    },
    {
      "inputs": [],
      "name": "withdrawFees",
      "outputs": [],
      "stateMutability": "nonpayable",
      "type": "function"
    }
  ],
  "bytecode": "0x6080604052662386f26fc1000060075534801561001b57600080fd5b50338061004257604051631e4fbdf760e01b81526000600482015260240160405180910390fd5b61004b8161005a565b506001805560006002556100aa565b600080546001600160a01b038381166001600160a01b0319831681178455604051919092169283917f8be0079c531659141344cd1fd0a4f28419497f9722a3daafe3b4186f6b6457e09190a35050565b61149a806100b96000396000f3fe6080604052600436106100fe5760003560e01c806381d12c5811610095578063a8c278a211610064578063a8c278a2146102bb578063aae9d5f2146102d1578063b337cf74146102f1578063c58343ef1461031e578063f2fde38b1461034b57600080fd5b806381d12c58146102155780638ad4801a146102495780638da5cb5b14610269578063904a2b381461029b57600080fd5b8063476343ee116100d1578063476343ee1461018b5780635983e6b0146101a057806361c992a3146101c0578063715018a61461020057600080fd5b80630f13b7631461010357806321762e8e14610125578063263cb6b61461014557806326df9c2e14610178575b600080fd5b34801561010f57600080fd5b5061012361011e366004610e18565b61036b565b005b34801561013157600080fd5b50610123610140366004610e18565b6103bf565b34801561015157600080fd5b50610165610160366004610e33565b6103e9565b6040519081526020015b60405180910390f35b610165610186366004610f14565b61041a565b34801561019757600080fd5b5061012361061f565b3480156101ac57600080fd5b506101236101bb366004610e18565b6106a8565b3480156101cc57600080fd5b506101f06101db366004610e18565b60056020526000908152604090205460ff1681565b604051901515815260200161016f565b34801561020c57600080fd5b506101236106f9565b34801561022157600080fd5b50610235610230366004611014565b61070d565b60405161016f9897969594939291906110ad565b34801561025557600080fd5b50610123610264366004611112565b6107ed565b34801561027557600080fd5b506000546001600160a01b03165b6040516001600160a01b03909116815260200161016f565b3480156102a757600080fd5b50600654610283906001600160a01b031681565b3480156102c757600080fd5b5061016560075481565b3480156102dd57600080fd5b506101236102ec366004611014565b610964565b3480156102fd57600080fd5b5061031161030c366004610e18565b610971565b60405161016f919061113e565b34801561032a57600080fd5b5061033e610339366004611014565b6109dd565b60405161016f91906111d7565b34801561035757600080fd5b50610123610366366004610e18565b610c5a565b610373610c98565b6001600160a01b038116600081815260056020526040808220805460ff19166001179055517f5a7a3f71a35f5e2589980d29d1c6d8c75e39657751190874081e55208bae24b79190a250565b6103c7610c98565b600680546001600160a01b0319166001600160a01b0392909216919091179055565b6004602052816000526040600020818154811061040557600080fd5b90600052602060002001600091509150505481565b6000610424610cc5565b60075434101561046e5760405162461bcd60e51b815260206004820152601060248201526f496e73756666696369656e742066656560801b60448201526064015b60405180910390fd5b60008251116104b75760405162461bcd60e51b8152602060048201526015602482015274139bc8191bd8dd5b595b9d1cc81c1c9bdd9a591959605a1b6044820152606401610465565b60008351116104fc5760405162461bcd60e51b8152602060048201526011602482015270131bd8d85d1a5bdb881c995c5d5a5c9959607a1b6044820152606401610465565b600060026000815461050d9061128d565b91829055506000818152600360205260409020818155600181018054336001600160a01b0319821681178355939450919288926001600160a81b03191660ff60a01b1990911617600160a01b83600581111561056b5761056b61102d565b02179055506002810161057e868261133d565b5083516105949060038301906020870190610d3f565b506004818101805460ff19169055426005830181905533600081815260209384526040808220805460018101825590835294909120909301859055915184917fa7a72e5c8a8289e423500e9330636d51bfe43a5252ff5e07e1236773d5ba529291610604918b918b918b916113fd565b60405180910390a350905061061860018055565b9392505050565b610627610c98565b478061066b5760405162461bcd60e51b81526020600482015260136024820152724e6f206665657320746f20776974686472617760681b6044820152606401610465565b600080546040516001600160a01b039091169183156108fc02918491818181858888f193505050501580156106a4573d6000803e3d6000fd5b5050565b6106b0610c98565b6001600160a01b038116600081815260056020526040808220805460ff19169055517f3c9c4af7c4c66de2ffc68abfa4e0d275fbce92f248473bca0d6787dc8caf8e319190a250565b610701610c98565b61070b6000610cef565b565b60036020526000908152604090208054600182015460028301805492936001600160a01b03831693600160a01b90930460ff169290919061074d906112b4565b80601f0160208091040260200160405190810160405280929190818152602001828054610779906112b4565b80156107c65780601f1061079b576101008083540402835291602001916107c6565b820191906000526020600020905b8154815290600101906020018083116107a957829003601f168201915b50505050600483015460058401546006850154600790950154939460ff9092169390925088565b3360009081526005602052604090205460ff166108445760405162461bcd60e51b81526020600482015260156024820152744e6f7420617574686f72697a6564206f7261636c6560581b6044820152606401610465565b600083815260036020526040812090600482015460ff16600381111561086c5761086c61102d565b146108af5760405162461bcd60e51b815260206004820152601360248201527252657175657374206e6f742070656e64696e6760681b6044820152606401610465565b6000821180156108c0575060648211155b6109015760405162461bcd60e51b8152602060048201526012602482015271496e76616c696420636f6e666964656e636560701b6044820152606401610465565b600681018390556007810182905560048101805460ff1916600290811790915560405185917f3a91aa3ce556d7adbc310642176c5258aab4f190039a52312c4f0f9543bed5d891610956918791879190611441565b60405180910390a250505050565b61096c610c98565b600755565b6001600160a01b0381166000908152600460209081526040918290208054835181840281018401909452808452606093928301828280156109d157602002820191906000526020600020905b8154815260200190600101908083116109bd575b50505050509050919050565b610a2c6040805161012081018252600080825260208201819052909182019081526060602082018190526040820181905201600081526020016000815260200160008152602001600081525090565b6000828152600360209081526040918290208251610120810184528154815260018201546001600160a01b0381169382019390935292909190830190600160a01b900460ff166005811115610a8357610a8361102d565b6005811115610a9457610a9461102d565b8152602001600282018054610aa8906112b4565b80601f0160208091040260200160405190810160405280929190818152602001828054610ad4906112b4565b8015610b215780601f10610af657610100808354040283529160200191610b21565b820191906000526020600020905b815481529060010190602001808311610b0457829003601f168201915b5050505050815260200160038201805480602002602001604051908101604052809291908181526020016000905b82821015610bfb578382906000526020600020018054610b6e906112b4565b80601f0160208091040260200160405190810160405280929190818152602001828054610b9a906112b4565b8015610be75780601f10610bbc57610100808354040283529160200191610be7565b820191906000526020600020905b815481529060010190602001808311610bca57829003601f168201915b505050505081526020019060010190610b4f565b50505090825250600482015460209091019060ff166003811115610c2157610c2161102d565b6003811115610c3257610c3261102d565b8152600582015460208201526006820154604082015260079091015460609091015292915050565b610c62610c98565b6001600160a01b038116610c8c57604051631e4fbdf760e01b815260006004820152602401610465565b610c9581610cef565b50565b6000546001600160a01b0316331461070b5760405163118cdaa760e01b8152336004820152602401610465565b600260015403610ce857604051633ee5aeb560e01b815260040160405180910390fd5b6002600155565b600080546001600160a01b038381166001600160a01b0319831681178455604051919092169283917f8be0079c531659141344cd1fd0a4f28419497f9722a3daafe3b4186f6b6457e09190a35050565b828054828255906000526020600020908101928215610d85579160200282015b82811115610d855782518290610d75908261133d565b5091602001919060010190610d5f565b50610d91929150610d95565b5090565b80821115610d91576000610da98282610db2565b50600101610d95565b508054610dbe906112b4565b6000825580601f10610dce575050565b601f016020900490600052602060002090810190610c9591905b80821115610d915760008155600101610de8565b80356001600160a01b0381168114610e1357600080fd5b919050565b600060208284031215610e2a57600080fd5b61061882610dfc565b60008060408385031215610e4657600080fd5b610e4f83610dfc565b946020939093013593505050565b634e487b7160e01b600052604160045260246000fd5b604051601f8201601f1916810167ffffffffffffffff81118282101715610e9c57610e9c610e5d565b604052919050565b600082601f830112610eb557600080fd5b813567ffffffffffffffff811115610ecf57610ecf610e5d565b610ee2601f8201601f1916602001610e73565b818152846020838601011115610ef757600080fd5b816020850160208301376000918101602001919091529392505050565b600080600060608486031215610f2957600080fd5b833560068110610f3857600080fd5b925060208481013567ffffffffffffffff80821115610f5657600080fd5b610f6288838901610ea4565b94506040870135915080821115610f7857600080fd5b818701915087601f830112610f8c57600080fd5b813581811115610f9e57610f9e610e5d565b8060051b610fad858201610e73565b918252838101850191858101908b841115610fc757600080fd5b86860192505b8383101561100357823585811115610fe55760008081fd5b610ff38d89838a0101610ea4565b8352509186019190860190610fcd565b809750505050505050509250925092565b60006020828403121561102657600080fd5b5035919050565b634e487b7160e01b600052602160045260246000fd5b600681106110535761105361102d565b9052565b6000815180845260005b8181101561107d57602081850181015186830182015201611061565b506000602082860101526020601f19601f83011685010191505092915050565b600481106110535761105361102d565b8881526001600160a01b038816602082015260006101006110d1604084018a611043565b8060608401526110e381840189611057565b9150506110f3608083018761109d565b8460a08301528360c08301528260e08301529998505050505050505050565b60008060006060848603121561112757600080fd5b505081359360208301359350604090920135919050565b6020808252825182820181905260009190848201906040850190845b818110156111765783518352928401929184019160010161115a565b50909695505050505050565b600081518084526020808501808196508360051b8101915082860160005b858110156111ca5782840389526111b8848351611057565b988501989350908401906001016111a0565b5091979650505050505050565b6020815281516020820152600060208301516111fe60408401826001600160a01b03169052565b5060408301516112116060840182611043565b50606083015161012080608085015261122e610140850183611057565b91506080850151601f198584030160a086015261124b8382611182565b92505060a085015161126060c086018261109d565b5060c085015160e085015260e0850151610100818187015280870151838701525050508091505092915050565b6000600182016112ad57634e487b7160e01b600052601160045260246000fd5b5060010190565b600181811c908216806112c857607f821691505b6020821081036112e857634e487b7160e01b600052602260045260246000fd5b50919050565b601f82111561133857600081815260208120601f850160051c810160208610156113155750805b601f850160051c820191505b8181101561133457828155600101611321565b5050505b505050565b815167ffffffffffffffff81111561135757611357610e5d565b61136b8161136584546112b4565b846112ee565b602080601f8311600181146113a057600084156113885750858301515b600019600386901b1c1916600185901b178555611334565b600085815260208120601f198616915b828110156113cf578886015182559484019460019091019084016113b0565b50858210156113ed5787850151600019600388901b60f8161c191681555b5050505050600190811b01905550565b6114078186611043565b60806020820152600061141d6080830186611057565b828103604084015261142f8186611182565b91505082606083015295945050505050565b838152602081018390526060810161145c604083018461109d565b94935050505056fea2646970667358221220e1f71000c86c341955a13815b13e1925dfd44991ad923da8bf5a073b14d85f1d64736f6c63430008140033",
  "linkReferences": {},
  "deployedLinkReferences": {}
}