{
  "_format": "hh-sol-artifact-1",
  "contractName": "ConsensusEngine",
  "sourceName": "contracts/core/ConsensusEngine.sol",
  "abi": [
    {
      "inputs": [],
      "stateMutability": "nonpayable",
      "type": "constructor"
    },
    {
      "inputs": [
        {
          "internalType": "address",
          "name": "owner",
          "type": "address"
        }
      ],
      "name": "OwnableInvalidOwner",
      "type": "error"
    },
    {
      "inputs": [
        {
          "internalType": "address",
          "name": "account",
          "type": "address"
        }
      ],
      "name": "OwnableUnauthorizedAccount",
      "type": "error"
    },
    {
      "anonymous": false,
      "inputs": [
        {
          "indexed": true,
          "internalType": "uint256",
          "name": "requestId",
          "type": "uint256"
        },
        {
          "indexed": true,
          "internalType": "address",
          "name": "tokenAddress",
          "type": "address"
        },
        {
          "indexed": false,
          "internalType": "uint256",
          "name": "valuation",
          "type": "uint256"
        }
      ],
      "name": "AssetTokenized",
      "type": "event"
    },
    {
      "anonymous": false,
      "inputs": [
        {
          "indexed": true,
          "internalType": "uint256",
          "name": "requestId",
          "type": "uint256"
        },
        {
          "indexed": false,
          "internalType": "uint256",
          "name": "finalValuation",
          "type": "uint256"
        },
        {
          "indexed": false,
          "internalType": "uint256",
          "name": "avgConfidence",
          "type": "uint256"
        },
        {
          "indexed": false,
          "internalType": "uint256",
          "name": "responseCount",
          "type": "uint256"
        }
      ],
      "name": "ConsensusReached",
      "type": "event"
    },
    {
      "anonymous": false,
      "inputs": [
        {
          "indexed": true,
          "internalType": "uint256",
          "name": "requestId",
          "type": "uint256"
        },
        {
          "indexed": true,
          "internalType": "address",
          "name": "oracle",
          "type": "address"
        },
        {
          "indexed": false,
          "internalType": "uint256",
          "name": "valuation",
          "type": "uint256"
        },
        {
          "indexed": false,
          "internalType": "uint256",
          "name": "confidence",
          "type": "uint256"
        }
      ],
      "name": "OracleResponseSubmitted",
      "type": "event"
    },
    {
      "anonymous": false,
      "inputs": [
        {
          "indexed": true,
          "internalType": "address",
          "name": "previousOwner",
          "type": "address"
        },
        {
          "indexed": true,
          "internalType": "address",
          "name": "newOwner",
          "type": "address"
        }
      ],
      "name": "OwnershipTransferred",
      "type": "event"
    },
    {
      "inputs": [],
      "name": "assetRegistry",
      "outputs": [
        {
          "internalType": "address",
          "name": "",
          "type": "address"
        }
      ],
      "stateMutability": "view",
      "type": "function"
    },
    {
      "inputs": [
        {
          "internalType": "address",
          "name": "_oracle",
          "type": "address"
        }
      ],
      "name": "authorizeOracle",
      "outputs": [],
      "stateMutability": "nonpayable",
      "type": "function"
    },
    {
      "inputs": [
        {
          "internalType": "address",
          "name": "",
          "type": "address"
        }
      ],
      "name": "authorizedOracles",
      "outputs": [
        {
          "internalType": "bool",
          "name": "",
          "type": "bool"
        }
      ],
      "stateMutability": "view",
      "type": "function"
    },
    {
      "inputs": [
        {
          "internalType": "uint256",
          "name": "",
          "type": "uint256"
        }
      ],
      "name": "consensusResults",
      "outputs": [
        {
          "internalType": "uint256",
          "name": "finalValuation",
          "type": "uint256"
        },
        {
          "internalType": "uint256",
          "name": "avgConfidence",
          "type": "uint256"
        },
        {
          "internalType": "uint256",
          "name": "responseCount",
          "type": "uint256"
        },
        {
          "internalType": "bool",
          "name": "consensusReached",
          "type": "bool"
        },
        {
          "internalType": "uint256",
          "name": "timestamp",
          "type": "uint256"
        }
      ],
      "stateMutability": "view",
      "type": "function"
    },
    {
      "inputs": [],
      "name": "consensusThreshold",
      "outputs": [
        {
          "internalType": "uint256",
          "name": "",
          "type": "uint256"
        }
      ],
      "stateMutability": "view",
      "type": "function"
    },
    {
      "inputs": [
        {
          "internalType": "uint256",
          "name": "_requestId",
          "type": "uint256"
        }
      ],
      "name": "getConsensusResult",
      "outputs": [
        {
          "components": [
            {
              "internalType": "uint256",
              "name": "finalValuation",
              "type": "uint256"
            },
            {
              "internalType": "uint256",
              "name": "avgConfidence",
              "type": "uint256"
            },
            {
              "internalType": "uint256",
              "name": "responseCount",
              "type": "uint256"
            },
            {
              "internalType": "bool",
              "name": "consensusReached",
              "type": "bool"
            },
            {
              "internalType": "uint256",
              "name": "timestamp",
              "type": "uint256"
            }
          ],
          "internalType": "struct ConsensusEngine.ConsensusResult",
          "name": "",
          "type": "tuple"
        }
      ],
      "stateMutability": "view",
      "type": "function"
    },
    {
      "inputs": [
        {
          "internalType": "uint256",
          "name": "_requestId",
          "type": "uint256"
        }
      ],
      "name": "getResponses",
      "outputs": [
        {
          "components": [
            {
              "internalType": "address",
              "name": "oracle",
              "type": "address"
            },
            {
              "internalType": "uint256",
              "name": "valuation",
              "type": "uint256"
            },
            {
              "internalType": "uint256",
              "name": "confidence",
              "type": "uint256"
            },
            {
              "internalType": "bytes32",
              "name": "evidenceHash",
              "type": "bytes32"
            },
            {
              "internalType": "uint256",
              "name": "timestamp",
              "type": "uint256"
            }
          ],
          "internalType": "struct ConsensusEngine.OracleResponse[]",
          "name": "",
          "type": "tuple[]"
        }
      ],
      "stateMutability": "view",
      "type": "function"
    },
    {
      "inputs": [],
      "name": "minConfidenceThreshold",
      "outputs": [
        {
          "internalType": "uint256",
          "name": "",
          "type": "uint256"
        }
      ],
      "stateMutability": "view",
      "type": "function"
    },
    {
      "inputs": [],
      "name": "owner",
      "outputs": [
        {
          "internalType": "address",
          "name": "",
          "type": "address"
        }
      ],
      "stateMutability": "view",
      "type": "function"
    },
    {
      "inputs": [],
      "name": "renounceOwnership",
      "outputs": [],
      "stateMutability": "nonpayable",
      "type": "function"
    },
    {
      "inputs": [
        {
          "internalType": "uint256",
          "name": "",
          "type": "uint256"
        },
        {
          "internalType": "uint256",
          "name": "",
          "type": "uint256"
        }
      ],
      "name": "requestResponses",
      "outputs": [
        {
          "internalType": "address",
          "name": "oracle",
          "type": "address"
        },
        {
          "internalType": "uint256",
          "name": "valuation",
          "type": "uint256"
        },
        {
          "internalType": "uint256",
          "name": "confidence",
          "type": "uint256"
        },
        {
          "internalType": "bytes32",
          "name": "evidenceHash",
          "type": "bytes32"
        },
        {
          "internalType": "uint256",
          "name": "timestamp",
          "type": "uint256"
        }
      ],
      "stateMutability": "view",
      "type": "function"
    },
    {
      "inputs": [
        {
          "internalType": "address",
          "name": "_oracle",
          "type": "address"
        }
      ],
      "name": "revokeOracle",
      "outputs": [],
      "stateMutability": "nonpayable",
      "type": "function"
    },
    {
      "inputs": [
        {
          "internalType": "address",
          "name": "_assetRegistry",
          "type": "address"
        }
      ],
      "name": "setAssetRegistry",
      "outputs": [],
      "stateMutability": "nonpayable",
      "type": "function"
    },
    {
      "inputs": [
        {
          "internalType": "uint256",
          "name": "_minConfidence",
          "type": "uint256"
        },
        {
          "internalType": "uint256",
          "name": "_consensusThreshold",
          "type": "uint256"
        }
      ],
      "name": "setThresholds",
      "outputs": [],
      "stateMutability": "nonpayable",
      "type": "function"
    },
    {
      "inputs": [
        {
          "internalType": "address",
          "name": "_tokenFactory",
          "type": "address"
        }
      ],
      "name": "setTokenFactory",
      "outputs": [],
      "stateMutability": "nonpayable",
      "type": "function"
    },
    {
      "inputs": [
        {
          "internalType": "uint256",
          "name": "_requestId",
          "type": "uint256"
        },
        {
          "internalType": "uint256",
          "name": "_valuation",
          "type": "uint256"
        },
        {
          "internalType": "uint256",
          "name": "_confidence",
          "type": "uint256"
        },
        {
          "internalType": "bytes32",
          "name": "_evidenceHash",
          "type": "bytes32"
        }
      ],
      "name": "submitOracleResponse",
      "outputs": [],
      "stateMutability": "nonpayable",
      "type": "function"
    },
    {
      "inputs": [],
      "name": "tokenFactory",
      "outputs": [
        {
          "internalType": "address",
          "name": "",
          "type": "address"
        }
      ],
      "stateMutability": "view",
      "type": "function"
    },
    {
      "inputs": [
        {
          "internalType": "address",
          "name": "newOwner",
          "type": "address"
        }
      ],
      "name": "transferOwnership",
      "outputs": [],
      "stateMutability": "nonpayable",
      "type": "function"
    }
  ],
  "bytecode": "0x60806040526050600655600260075534801561001a57600080fd5b50338061004157604051631e4fbdf760e01b81526000600482015260240160405180910390fd5b61004a81610050565b506100a0565b600080546001600160a01b038381166001600160a01b0319831681178455604051919092169283917f8be0079c531659141344cd1fd0a4f28419497f9722a3daafe3b4186f6b6457e09190a35050565b610cff806100af6000396000f3fe608060405234801561001057600080fd5b50600436106101165760003560e01c80638da5cb5b116100a2578063e6f9990311610071578063e6f99903146102c7578063e77772fe14610334578063e84d033c14610347578063f2fde38b1461035a578063f9b0b5b91461036d57600080fd5b80638da5cb5b1461023757806394ea19101461025c578063979d7e86146102a1578063e3064a77146102b457600080fd5b806361c992a3116100e957806361c992a314610169578063715018a6146101a157806371ee2ce1146101a957806374209cec146101c9578063748491851461022057600080fd5b80630f13b7631461011b5780632f73a9f81461013057806347cc16ee146101435780635983e6b014610156575b600080fd5b61012e610129366004610b1e565b610376565b005b61012e61013e366004610b1e565b6103a2565b61012e610151366004610b4e565b6103cc565b61012e610164366004610b1e565b61062d565b61018c610177366004610b1e565b60036020526000908152604090205460ff1681565b60405190151581526020015b60405180910390f35b61012e610656565b6101bc6101b7366004610b80565b61066a565b6040516101989190610b99565b6101dc6101d7366004610b80565b610711565b6040516101989190600060a0820190508251825260208301516020830152604083015160408301526060830151151560608301526080830151608083015292915050565b61022960065481565b604051908152602001610198565b6000546001600160a01b03165b6040516001600160a01b039091168152602001610198565b61026f61026a366004610c10565b610796565b604080516001600160a01b0390961686526020860194909452928401919091526060830152608082015260a001610198565b600554610244906001600160a01b031681565b61012e6102c2366004610c10565b6107ee565b61030a6102d5366004610b80565b600260208190526000918252604090912080546001820154928201546003830154600490930154919392909160ff9091169085565b6040805195865260208601949094529284019190915215156060830152608082015260a001610198565b600454610244906001600160a01b031681565b61012e610355366004610b1e565b610801565b61012e610368366004610b1e565b61082b565b61022960075481565b61037e610869565b6001600160a01b03166000908152600360205260409020805460ff19166001179055565b6103aa610869565b600480546001600160a01b0319166001600160a01b0392909216919091179055565b3360009081526003602052604090205460ff166104285760405162461bcd60e51b81526020600482015260156024820152744e6f7420617574686f72697a6564206f7261636c6560581b60448201526064015b60405180910390fd5b60065482101561046f5760405162461bcd60e51b8152602060048201526012602482015271436f6e666964656e636520746f6f206c6f7760701b604482015260640161041f565b600083116104b35760405162461bcd60e51b815260206004820152601160248201527024b73b30b634b2103b30b63ab0ba34b7b760791b604482015260640161041f565b6000848152600160205260408120905b815481101561055557336001600160a01b03168282815481106104e8576104e8610c32565b60009182526020909120600590910201546001600160a01b0316036105435760405162461bcd60e51b8152602060048201526011602482015270105b1c9958591e481cdd589b5a5d1d1959607a1b604482015260640161041f565b8061054d81610c5e565b9150506104c3565b506040805160a081018252338082526020808301888152838501888152606085018881524260808701908152885460018082018b5560008b81528790209851600590920290980180546001600160a01b0319166001600160a01b0390921691909117815593519684019690965590516002830155516003820155925160049093019290925582518781529182018690529187917f79367dce6a2116b809fc9b8bbcdd4e22a8a0ff92738bb55f98277ffe49f3c5dd910160405180910390a36007548154106106265761062685610896565b5050505050565b610635610869565b6001600160a01b03166000908152600360205260409020805460ff19169055565b61065e610869565b6106686000610a92565b565b606060016000838152602001908152602001600020805480602002602001604051908101604052809291908181526020016000905b828210156107065760008481526020908190206040805160a0810182526005860290920180546001600160a01b031683526001808201548486015260028201549284019290925260038101546060840152600401546080830152908352909201910161069f565b505050509050919050565b6107456040518060a00160405280600081526020016000815260200160008152602001600015158152602001600081525090565b50600090815260026020818152604092839020835160a081018552815481526001820154928101929092529182015492810192909252600381015460ff161515606083015260040154608082015290565b600160205281600052604060002081815481106107b257600080fd5b6000918252602090912060059091020180546001820154600283015460038401546004909401546001600160a01b039093169550909350919085565b6107f6610869565b600691909155600755565b610809610869565b600580546001600160a01b0319166001600160a01b0392909216919091179055565b610833610869565b6001600160a01b03811661085d57604051631e4fbdf760e01b81526000600482015260240161041f565b61086681610a92565b50565b6000546001600160a01b031633146106685760405163118cdaa760e01b815233600482015260240161041f565b6000818152600160205260409020600754815410156108f05760405162461bcd60e51b8152602060048201526016602482015275496e73756666696369656e7420726573706f6e73657360501b604482015260640161041f565b60008060005b83548110156109a05783818154811061091157610911610c32565b90600052602060002090600502016002015484828154811061093557610935610c32565b9060005260206000209060050201600101546109519190610c77565b61095b9084610c94565b925083818154811061096f5761096f610c32565b9060005260206000209060050201600201548261098c9190610c94565b91508061099881610c5e565b9150506108f6565b5060006109ad8284610ca7565b84549091506000906109bf9084610ca7565b6040805160a08101825284815260208082018481528954838501908152600160608501818152426080870190815260008f815260029687905288902096518755935191860191909155905192840192909255905160038301805491151560ff19909216919091179055516004909101558654905191925087917fff2fc693bb2d4a09f21f0c403fce5ecb4b5b0b57e81c7253deb5386bb8a8ae7791610a7891869186919283526020830191909152604082015260600190565b60405180910390a2610a8a8683610ae2565b505050505050565b600080546001600160a01b038381166001600160a01b0319831681178455604051919092169283917f8be0079c531659141344cd1fd0a4f28419497f9722a3daafe3b4186f6b6457e09190a35050565b60405181815260009083907fe8f027853b41b6574e79fef7b01faee65e662bc5e7f10149ab6e3abd6c33b5fe9060200160405180910390a35050565b600060208284031215610b3057600080fd5b81356001600160a01b0381168114610b4757600080fd5b9392505050565b60008060008060808587031215610b6457600080fd5b5050823594602084013594506040840135936060013592509050565b600060208284031215610b9257600080fd5b5035919050565b602080825282518282018190526000919060409081850190868401855b82811015610c0357815180516001600160a01b0316855286810151878601528581015186860152606080820151908601526080908101519085015260a09093019290850190600101610bb6565b5091979650505050505050565b60008060408385031215610c2357600080fd5b50508035926020909101359150565b634e487b7160e01b600052603260045260246000fd5b634e487b7160e01b600052601160045260246000fd5b600060018201610c7057610c70610c48565b5060010190565b8082028115828204841417610c8e57610c8e610c48565b92915050565b80820180821115610c8e57610c8e610c48565b600082610cc457634e487b7160e01b600052601260045260246000fd5b50049056fea264697066735822122084d15f442b8a9efac4fb2c7c50e970fc3848d8b509178c3b95847275e1f02c8264736f6c63430008140033",
  "linkReferences": {},
  "deployedLinkReferences": {}
}