{
  "_format": "hh-sol-artifact-1",
  "contractName": "ConsensusEngine",
  "sourceName": "contracts/core/ConsensusEngine.sol",
  "abi": [
    {
      "inputs": [],
      "stateMutability": "nonpayable",
      "type": "constructor"
    },
    {
      "inputs": [
        {
          "internalType": "address",
          "name": "owner",
          "type": "address"
        }
      ],
      "name": "OwnableInvalidOwner",
      "type": "error"
    },
    {
      "inputs": [
        {
          "internalType": "address",
          "name": "account",
          "type": "address"
        }
      ],
      "name": "OwnableUnauthorizedAccount",
      "type": "error"
    },
    {
      "anonymous": false,
      "inputs": [
        {
          "indexed": true,
          "internalType": "uint256",
          "name": "requestId",
          "type": "uint256"
        },
        {
          "indexed": true,
          "internalType": "address",
          "name": "tokenAddress",
          "type": "address"
        },
        {
          "indexed": false,
          "internalType": "uint256",
          "name": "valuation",
          "type": "uint256"
        }
      ],
      "name": "AssetTokenized",
      "type": "event"
    },
    {
      "anonymous": false,
      "inputs": [
        {
          "indexed": true,
          "internalType": "uint256",
          "name": "requestId",
          "type": "uint256"
        },
        {
          "indexed": false,
          "internalType": "uint256",
          "name": "finalValuation",
          "type": "uint256"
        },
        {
          "indexed": false,
          "internalType": "uint256",
          "name": "avgConfidence",
          "type": "uint256"
        },
        {
          "indexed": false,
          "internalType": "uint256",
          "name": "responseCount",
          "type": "uint256"
        }
      ],
      "name": "ConsensusReached",
      "type": "event"
    },
    {
      "anonymous": false,
      "inputs": [
        {
          "indexed": true,
          "internalType": "uint256",
          "name": "requestId",
          "type": "uint256"
        },
        {
          "indexed": true,
          "internalType": "address",
          "name": "oracle",
          "type": "address"
        },
        {
          "indexed": false,
          "internalType": "uint256",
          "name": "valuation",
          "type": "uint256"
        },
        {
          "indexed": false,
          "internalType": "uint256",
          "name": "confidence",
          "type": "uint256"
        }
      ],
      "name": "OracleResponseSubmitted",
      "type": "event"
    },
    {
      "anonymous": false,
      "inputs": [
        {
          "indexed": true,
          "internalType": "address",
          "name": "previousOwner",
          "type": "address"
        },
        {
          "indexed": true,
          "internalType": "address",
          "name": "newOwner",
          "type": "address"
        }
      ],
      "name": "OwnershipTransferred",
      "type": "event"
    },
    {
      "anonymous": false,
      "inputs": [
        {
          "indexed": true,
          "internalType": "uint256",
          "name": "requestId",
          "type": "uint256"
        },
        {
          "indexed": false,
          "internalType": "bytes32",
          "name": "verificationHash",
          "type": "bytes32"
        },
        {
          "indexed": false,
          "internalType": "uint256",
          "name": "l1BlockNumber",
          "type": "uint256"
        }
      ],
      "name": "VerificationAnchored",
      "type": "event"
    },
    {
      "inputs": [],
      "name": "assetRegistry",
      "outputs": [
        {
          "internalType": "address",
          "name": "",
          "type": "address"
        }
      ],
      "stateMutability": "view",
      "type": "function"
    },
    {
      "inputs": [
        {
          "internalType": "address",
          "name": "_oracle",
          "type": "address"
        }
      ],
      "name": "authorizeOracle",
      "outputs": [],
      "stateMutability": "nonpayable",
      "type": "function"
    },
    {
      "inputs": [
        {
          "internalType": "address",
          "name": "",
          "type": "address"
        }
      ],
      "name": "authorizedOracles",
      "outputs": [
        {
          "internalType": "bool",
          "name": "",
          "type": "bool"
        }
      ],
      "stateMutability": "view",
      "type": "function"
    },
    {
      "inputs": [
        {
          "internalType": "uint256",
          "name": "",
          "type": "uint256"
        }
      ],
      "name": "consensusResults",
      "outputs": [
        {
          "internalType": "uint256",
          "name": "finalValuation",
          "type": "uint256"
        },
        {
          "internalType": "uint256",
          "name": "avgConfidence",
          "type": "uint256"
        },
        {
          "internalType": "uint256",
          "name": "responseCount",
          "type": "uint256"
        },
        {
          "internalType": "bool",
          "name": "consensusReached",
          "type": "bool"
        },
        {
          "internalType": "uint256",
          "name": "timestamp",
          "type": "uint256"
        },
        {
          "internalType": "uint256",
          "name": "l1BlockNumber",
          "type": "uint256"
        },
        {
          "internalType": "bytes32",
          "name": "verificationHash",
          "type": "bytes32"
        }
      ],
      "stateMutability": "view",
      "type": "function"
    },
    {
      "inputs": [],
      "name": "consensusThreshold",
      "outputs": [
        {
          "internalType": "uint256",
          "name": "",
          "type": "uint256"
        }
      ],
      "stateMutability": "view",
      "type": "function"
    },
    {
      "inputs": [
        {
          "internalType": "uint256",
          "name": "_requestId",
          "type": "uint256"
        }
      ],
      "name": "getConsensusResult",
      "outputs": [
        {
          "components": [
            {
              "internalType": "uint256",
              "name": "finalValuation",
              "type": "uint256"
            },
            {
              "internalType": "uint256",
              "name": "avgConfidence",
              "type": "uint256"
            },
            {
              "internalType": "uint256",
              "name": "responseCount",
              "type": "uint256"
            },
            {
              "internalType": "bool",
              "name": "consensusReached",
              "type": "bool"
            },
            {
              "internalType": "uint256",
              "name": "timestamp",
              "type": "uint256"
            },
            {
              "internalType": "uint256",
              "name": "l1BlockNumber",
              "type": "uint256"
            },
            {
              "internalType": "bytes32",
              "name": "verificationHash",
              "type": "bytes32"
            }
          ],
          "internalType": "struct ConsensusEngine.ConsensusResult",
          "name": "",
          "type": "tuple"
        }
      ],
      "stateMutability": "view",
      "type": "function"
    },
    {
      "inputs": [
        {
          "internalType": "uint256",
          "name": "_requestId",
          "type": "uint256"
        }
      ],
      "name": "getResponses",
      "outputs": [
        {
          "components": [
            {
              "internalType": "address",
              "name": "oracle",
              "type": "address"
            },
            {
              "internalType": "uint256",
              "name": "valuation",
              "type": "uint256"
            },
            {
              "internalType": "uint256",
              "name": "confidence",
              "type": "uint256"
            },
            {
              "internalType": "bytes32",
              "name": "evidenceHash",
              "type": "bytes32"
            },
            {
              "internalType": "uint256",
              "name": "timestamp",
              "type": "uint256"
            }
          ],
          "internalType": "struct ConsensusEngine.OracleResponse[]",
          "name": "",
          "type": "tuple[]"
        }
      ],
      "stateMutability": "view",
      "type": "function"
    },
    {
      "inputs": [],
      "name": "minConfidenceThreshold",
      "outputs": [
        {
          "internalType": "uint256",
          "name": "",
          "type": "uint256"
        }
      ],
      "stateMutability": "view",
      "type": "function"
    },
    {
      "inputs": [],
      "name": "owner",
      "outputs": [
        {
          "internalType": "address",
          "name": "",
          "type": "address"
        }
      ],
      "stateMutability": "view",
      "type": "function"
    },
    {
      "inputs": [],
      "name": "renounceOwnership",
      "outputs": [],
      "stateMutability": "nonpayable",
      "type": "function"
    },
    {
      "inputs": [
        {
          "internalType": "uint256",
          "name": "",
          "type": "uint256"
        },
        {
          "internalType": "uint256",
          "name": "",
          "type": "uint256"
        }
      ],
      "name": "requestResponses",
      "outputs": [
        {
          "internalType": "address",
          "name": "oracle",
          "type": "address"
        },
        {
          "internalType": "uint256",
          "name": "valuation",
          "type": "uint256"
        },
        {
          "internalType": "uint256",
          "name": "confidence",
          "type": "uint256"
        },
        {
          "internalType": "bytes32",
          "name": "evidenceHash",
          "type": "bytes32"
        },
        {
          "internalType": "uint256",
          "name": "timestamp",
          "type": "uint256"
        }
      ],
      "stateMutability": "view",
      "type": "function"
    },
    {
      "inputs": [
        {
          "internalType": "address",
          "name": "_oracle",
          "type": "address"
        }
      ],
      "name": "revokeOracle",
      "outputs": [],
      "stateMutability": "nonpayable",
      "type": "function"
    },
    {
      "inputs": [
        {
          "internalType": "address",
          "name": "_assetRegistry",
          "type": "address"
        }
      ],
      "name": "setAssetRegistry",
      "outputs": [],
      "stateMutability": "nonpayable",
      "type": "function"
    },
    {
      "inputs": [
        {
          "internalType": "uint256",
          "name": "_minConfidence",
          "type": "uint256"
        },
        {
          "internalType": "uint256",
          "name": "_consensusThreshold",
          "type": "uint256"
        }
      ],
      "name": "setThresholds",
      "outputs": [],
      "stateMutability": "nonpayable",
      "type": "function"
    },
    {
      "inputs": [
        {
          "internalType": "address",
          "name": "_tokenFactory",
          "type": "address"
        }
      ],
      "name": "setTokenFactory",
      "outputs": [],
      "stateMutability": "nonpayable",
      "type": "function"
    },
    {
      "inputs": [
        {
          "internalType": "address",
          "name": "_verificationAnchor",
          "type": "address"
        }
      ],
      "name": "setVerificationAnchor",
      "outputs": [],
      "stateMutability": "nonpayable",
      "type": "function"
    },
    {
      "inputs": [
        {
          "internalType": "uint256",
          "name": "_requestId",
          "type": "uint256"
        },
        {
          "internalType": "uint256",
          "name": "_valuation",
          "type": "uint256"
        },
        {
          "internalType": "uint256",
          "name": "_confidence",
          "type": "uint256"
        },
        {
          "internalType": "bytes32",
          "name": "_evidenceHash",
          "type": "bytes32"
        }
      ],
      "name": "submitOracleResponse",
      "outputs": [],
      "stateMutability": "nonpayable",
      "type": "function"
    },
    {
      "inputs": [],
      "name": "tokenFactory",
      "outputs": [
        {
          "internalType": "address",
          "name": "",
          "type": "address"
        }
      ],
      "stateMutability": "view",
      "type": "function"
    },
    {
      "inputs": [
        {
          "internalType": "address",
          "name": "newOwner",
          "type": "address"
        }
      ],
      "name": "transferOwnership",
      "outputs": [],
      "stateMutability": "nonpayable",
      "type": "function"
    },
    {
      "inputs": [],
      "name": "verificationAnchor",
      "outputs": [
        {
          "internalType": "address",
          "name": "",
          "type": "address"
        }
      ],
      "stateMutability": "view",
      "type": "function"
    }
  ],
  "bytecode": "0x60806040526050600755600260085534801561001a57600080fd5b50338061004157604051631e4fbdf760e01b81526000600482015260240160405180910390fd5b61004a81610050565b506100a0565b600080546001600160a01b038381166001600160a01b0319831681178455604051919092169283917f8be0079c531659141344cd1fd0a4f28419497f9722a3daafe3b4186f6b6457e09190a35050565b611042806100af6000396000f3fe608060405234801561001057600080fd5b506004361061012c5760003560e01c80638da5cb5b116100ad578063e77772fe11610071578063e77772fe1461038c578063e84d033c1461039f578063f2fde38b146103b2578063f700bace146103c5578063f9b0b5b9146103d857600080fd5b80638da5cb5b1461028c57806394ea19101461029d578063979d7e86146102e2578063e3064a77146102f5578063e6f999031461030857600080fd5b806367bd1e79116100f457806367bd1e79146101b7578063715018a6146101e257806371ee2ce1146101ea57806374209cec1461020a578063748491851461027557600080fd5b80630f13b763146101315780632f73a9f81461014657806347cc16ee146101595780635983e6b01461016c57806361c992a31461017f575b600080fd5b61014461013f366004610e19565b6103e1565b005b610144610154366004610e19565b61040d565b610144610167366004610e49565b610437565b61014461017a366004610e19565b610698565b6101a261018d366004610e19565b60036020526000908152604090205460ff1681565b60405190151581526020015b60405180910390f35b6006546101ca906001600160a01b031681565b6040516001600160a01b0390911681526020016101ae565b6101446106c1565b6101fd6101f8366004610e7b565b6106d5565b6040516101ae9190610e94565b61021d610218366004610e7b565b61077c565b6040516101ae9190600060e0820190508251825260208301516020830152604083015160408301526060830151151560608301526080830151608083015260a083015160a083015260c083015160c083015292915050565b61027e60075481565b6040519081526020016101ae565b6000546001600160a01b03166101ca565b6102b06102ab366004610f0b565b610826565b604080516001600160a01b0390961686526020860194909452928401919091526060830152608082015260a0016101ae565b6005546101ca906001600160a01b031681565b610144610303366004610f0b565b61087e565b610357610316366004610e7b565b60026020819052600091825260409091208054600182015492820154600383015460048401546005850154600690950154939594929360ff90921692909187565b604080519788526020880196909652948601939093529015156060850152608084015260a083015260c082015260e0016101ae565b6004546101ca906001600160a01b031681565b6101446103ad366004610e19565b610891565b6101446103c0366004610e19565b6108bb565b6101446103d3366004610e19565b6108f9565b61027e60085481565b6103e9610923565b6001600160a01b03166000908152600360205260409020805460ff19166001179055565b610415610923565b600480546001600160a01b0319166001600160a01b0392909216919091179055565b3360009081526003602052604090205460ff166104935760405162461bcd60e51b81526020600482015260156024820152744e6f7420617574686f72697a6564206f7261636c6560581b60448201526064015b60405180910390fd5b6007548210156104da5760405162461bcd60e51b8152602060048201526012602482015271436f6e666964656e636520746f6f206c6f7760701b604482015260640161048a565b6000831161051e5760405162461bcd60e51b815260206004820152601160248201527024b73b30b634b2103b30b63ab0ba34b7b760791b604482015260640161048a565b6000848152600160205260408120905b81548110156105c057336001600160a01b031682828154811061055357610553610f2d565b60009182526020909120600590910201546001600160a01b0316036105ae5760405162461bcd60e51b8152602060048201526011602482015270105b1c9958591e481cdd589b5a5d1d1959607a1b604482015260640161048a565b806105b881610f59565b91505061052e565b506040805160a081018252338082526020808301888152838501888152606085018881524260808701908152885460018082018b5560008b81528790209851600590920290980180546001600160a01b0319166001600160a01b0390921691909117815593519684019690965590516002830155516003820155925160049093019290925582518781529182018690529187917f79367dce6a2116b809fc9b8bbcdd4e22a8a0ff92738bb55f98277ffe49f3c5dd910160405180910390a36008548154106106915761069185610950565b5050505050565b6106a0610923565b6001600160a01b03166000908152600360205260409020805460ff19169055565b6106c9610923565b6106d36000610c59565b565b606060016000838152602001908152602001600020805480602002602001604051908101604052809291908181526020016000905b828210156107715760008481526020908190206040805160a0810182526005860290920180546001600160a01b031683526001808201548486015260028201549284019290925260038101546060840152600401546080830152908352909201910161070a565b505050509050919050565b6107c16040518060e001604052806000815260200160008152602001600081526020016000151581526020016000815260200160008152602001600080191681525090565b50600090815260026020818152604092839020835160e081018552815481526001820154928101929092529182015492810192909252600381015460ff161515606083015260048101546080830152600581015460a08301526006015460c082015290565b6001602052816000526040600020818154811061084257600080fd5b6000918252602090912060059091020180546001820154600283015460038401546004909401546001600160a01b039093169550909350919085565b610886610923565b600791909155600855565b610899610923565b600580546001600160a01b0319166001600160a01b0392909216919091179055565b6108c3610923565b6001600160a01b0381166108ed57604051631e4fbdf760e01b81526000600482015260240161048a565b6108f681610c59565b50565b610901610923565b600680546001600160a01b0319166001600160a01b0392909216919091179055565b6000546001600160a01b031633146106d35760405163118cdaa760e01b815233600482015260240161048a565b6000818152600160205260409020600854815410156109aa5760405162461bcd60e51b8152602060048201526016602482015275496e73756666696369656e7420726573706f6e73657360501b604482015260640161048a565b60008060005b8354811015610a5a578381815481106109cb576109cb610f2d565b9060005260206000209060050201600201548482815481106109ef576109ef610f2d565b906000526020600020906005020160010154610a0b9190610f72565b610a159084610f8f565b9250838181548110610a2957610a29610f2d565b90600052602060002090600502016002015482610a469190610f8f565b915080610a5281610f59565b9150506109b0565b506000610a678284610fa2565b8454909150600090610a799084610fa2565b905060006015602160991b016001600160a01b0316638381f58a6040518163ffffffff1660e01b8152600401602060405180830381865afa158015610ac2573d6000803e3d6000fd5b505050506040513d601f19601f82011682018060405250810190610ae69190610fc4565b60408051602081018a905290810185905260608101849052608081018290524260a082015290915060009060c0016040516020818303038152906040528051906020012090506040518060e001604052808581526020018481526020018880549050815260200160011515815260200142815260200183815260200182815250600260008a815260200190815260200160002060008201518160000155602082015181600101556040820151816002015560608201518160030160006101000a81548160ff0219169083151502179055506080820151816004015560a0820151816005015560c08201518160060155905050877fff2fc693bb2d4a09f21f0c403fce5ecb4b5b0b57e81c7253deb5386bb8a8ae7785858a80549050604051610c21939291909283526020830191909152604082015260600190565b60405180910390a26006546001600160a01b031615610c4557610c45888284610ca9565b610c4f8885610ddd565b5050505050505050565b600080546001600160a01b038381166001600160a01b0319831681178455604051919092169283917f8be0079c531659141344cd1fd0a4f28419497f9722a3daafe3b4186f6b6457e09190a35050565b6006546040516024810185905260448101849052606481018390526000916001600160a01b03169060840160408051601f198184030181529181526020820180516001600160e01b0316630d1aa0db60e11b17905251610d099190610fdd565b6000604051808303816000865af19150503d8060008114610d46576040519150601f19603f3d011682016040523d82523d6000602084013e610d4b565b606091505b5050905080610d9c5760405162461bcd60e51b815260206004820152601d60248201527f4661696c656420746f20616e63686f7220766572696669636174696f6e000000604482015260640161048a565b604080518481526020810184905285917f182b8b0ea2372f106d0cedfaed3d9220dbe404a6de7ea5d89d1c4982c970d636910160405180910390a250505050565b60405181815260009083907fe8f027853b41b6574e79fef7b01faee65e662bc5e7f10149ab6e3abd6c33b5fe9060200160405180910390a35050565b600060208284031215610e2b57600080fd5b81356001600160a01b0381168114610e4257600080fd5b9392505050565b60008060008060808587031215610e5f57600080fd5b5050823594602084013594506040840135936060013592509050565b600060208284031215610e8d57600080fd5b5035919050565b602080825282518282018190526000919060409081850190868401855b82811015610efe57815180516001600160a01b0316855286810151878601528581015186860152606080820151908601526080908101519085015260a09093019290850190600101610eb1565b5091979650505050505050565b60008060408385031215610f1e57600080fd5b50508035926020909101359150565b634e487b7160e01b600052603260045260246000fd5b634e487b7160e01b600052601160045260246000fd5b600060018201610f6b57610f6b610f43565b5060010190565b8082028115828204841417610f8957610f89610f43565b92915050565b80820180821115610f8957610f89610f43565b600082610fbf57634e487b7160e01b600052601260045260246000fd5b500490565b600060208284031215610fd657600080fd5b5051919050565b6000825160005b81811015610ffe5760208186018101518583015201610fe4565b50600092019182525091905056fea2646970667358221220ee38c3220d500539dcf01dfb95825aa4e84d27da1450e353d64a9c2ac438808264736f6c63430008140033",
  "linkReferences": {},
  "deployedLinkReferences": {}
}