{
  "_format": "hh-sol-artifact-1",
  "contractName": "ComplianceModule",
  "sourceName": "contracts/compliance/ComplianceModule.sol",
  "abi": [
    {
      "inputs": [],
      "stateMutability": "nonpayable",
      "type": "constructor"
    },
    {
      "inputs": [
        {
          "internalType": "address",
          "name": "owner",
          "type": "address"
        }
      ],
      "name": "OwnableInvalidOwner",
      "type": "error"
    },
    {
      "inputs": [
        {
          "internalType": "address",
          "name": "account",
          "type": "address"
        }
      ],
      "name": "OwnableUnauthorizedAccount",
      "type": "error"
    },
    {
      "anonymous": false,
      "inputs": [
        {
          "indexed": true,
          "internalType": "address",
          "name": "user",
          "type": "address"
        },
        {
          "indexed": false,
          "internalType": "bool",
          "name": "status",
          "type": "bool"
        }
      ],
      "name": "AccreditedInvestorSet",
      "type": "event"
    },
    {
      "anonymous": false,
      "inputs": [
        {
          "indexed": false,
          "internalType": "enum ComplianceModule.JurisdictionType",
          "name": "jurisdiction",
          "type": "uint8"
        },
        {
          "indexed": false,
          "internalType": "bool",
          "name": "restricted",
          "type": "bool"
        }
      ],
      "name": "JurisdictionRestricted",
      "type": "event"
    },
    {
      "anonymous": false,
      "inputs": [
        {
          "indexed": true,
          "internalType": "address",
          "name": "user",
          "type": "address"
        }
      ],
      "name": "KYCRevoked",
      "type": "event"
    },
    {
      "anonymous": false,
      "inputs": [
        {
          "indexed": true,
          "internalType": "address",
          "name": "user",
          "type": "address"
        },
        {
          "indexed": false,
          "internalType": "enum ComplianceModule.JurisdictionType",
          "name": "jurisdiction",
          "type": "uint8"
        }
      ],
      "name": "KYCVerified",
      "type": "event"
    },
    {
      "anonymous": false,
      "inputs": [
        {
          "indexed": true,
          "internalType": "address",
          "name": "previousOwner",
          "type": "address"
        },
        {
          "indexed": true,
          "internalType": "address",
          "name": "newOwner",
          "type": "address"
        }
      ],
      "name": "OwnershipTransferred",
      "type": "event"
    },
    {
      "anonymous": false,
      "inputs": [
        {
          "indexed": true,
          "internalType": "address",
          "name": "user",
          "type": "address"
        },
        {
          "indexed": false,
          "internalType": "bool",
          "name": "restricted",
          "type": "bool"
        }
      ],
      "name": "UserRestricted",
      "type": "event"
    },
    {
      "inputs": [
        {
          "internalType": "address[]",
          "name": "_users",
          "type": "address[]"
        },
        {
          "internalType": "bool[]",
          "name": "_verified",
          "type": "bool[]"
        },
        {
          "internalType": "enum ComplianceModule.JurisdictionType[]",
          "name": "_jurisdictions",
          "type": "uint8[]"
        }
      ],
      "name": "batchSetKYC",
      "outputs": [],
      "stateMutability": "nonpayable",
      "type": "function"
    },
    {
      "inputs": [
        {
          "internalType": "address",
          "name": "_from",
          "type": "address"
        },
        {
          "internalType": "address",
          "name": "_to",
          "type": "address"
        }
      ],
      "name": "checkTransferAllowed",
      "outputs": [
        {
          "internalType": "bool",
          "name": "",
          "type": "bool"
        }
      ],
      "stateMutability": "view",
      "type": "function"
    },
    {
      "inputs": [
        {
          "internalType": "address",
          "name": "_user",
          "type": "address"
        }
      ],
      "name": "getUserCompliance",
      "outputs": [
        {
          "components": [
            {
              "internalType": "bool",
              "name": "kycVerified",
              "type": "bool"
            },
            {
              "internalType": "bool",
              "name": "accreditedInvestor",
              "type": "bool"
            },
            {
              "internalType": "enum ComplianceModule.JurisdictionType",
              "name": "jurisdiction",
              "type": "uint8"
            },
            {
              "internalType": "uint256",
              "name": "verificationDate",
              "type": "uint256"
            },
            {
              "internalType": "uint256",
              "name": "expirationDate",
              "type": "uint256"
            },
            {
              "internalType": "bool",
              "name": "restricted",
              "type": "bool"
            }
          ],
          "internalType": "struct ComplianceModule.ComplianceData",
          "name": "",
          "type": "tuple"
        }
      ],
      "stateMutability": "view",
      "type": "function"
    },
    {
      "inputs": [
        {
          "internalType": "address",
          "name": "_user",
          "type": "address"
        }
      ],
      "name": "isAccredited",
      "outputs": [
        {
          "internalType": "bool",
          "name": "",
          "type": "bool"
        }
      ],
      "stateMutability": "view",
      "type": "function"
    },
    {
      "inputs": [
        {
          "internalType": "address",
          "name": "_user",
          "type": "address"
        }
      ],
      "name": "isKYCVerified",
      "outputs": [
        {
          "internalType": "bool",
          "name": "",
          "type": "bool"
        }
      ],
      "stateMutability": "view",
      "type": "function"
    },
    {
      "inputs": [],
      "name": "kycValidityPeriod",
      "outputs": [
        {
          "internalType": "uint256",
          "name": "",
          "type": "uint256"
        }
      ],
      "stateMutability": "view",
      "type": "function"
    },
    {
      "inputs": [],
      "name": "owner",
      "outputs": [
        {
          "internalType": "address",
          "name": "",
          "type": "address"
        }
      ],
      "stateMutability": "view",
      "type": "function"
    },
    {
      "inputs": [],
      "name": "renounceOwnership",
      "outputs": [],
      "stateMutability": "nonpayable",
      "type": "function"
    },
    {
      "inputs": [
        {
          "internalType": "enum ComplianceModule.JurisdictionType",
          "name": "",
          "type": "uint8"
        }
      ],
      "name": "restrictedJurisdictions",
      "outputs": [
        {
          "internalType": "bool",
          "name": "",
          "type": "bool"
        }
      ],
      "stateMutability": "view",
      "type": "function"
    },
    {
      "inputs": [
        {
          "internalType": "address",
          "name": "_user",
          "type": "address"
        },
        {
          "internalType": "bool",
          "name": "_status",
          "type": "bool"
        }
      ],
      "name": "setAccreditedInvestor",
      "outputs": [],
      "stateMutability": "nonpayable",
      "type": "function"
    },
    {
      "inputs": [
        {
          "internalType": "enum ComplianceModule.JurisdictionType",
          "name": "_jurisdiction",
          "type": "uint8"
        },
        {
          "internalType": "bool",
          "name": "_restricted",
          "type": "bool"
        }
      ],
      "name": "setJurisdictionRestriction",
      "outputs": [],
      "stateMutability": "nonpayable",
      "type": "function"
    },
    {
      "inputs": [
        {
          "internalType": "address",
          "name": "_user",
          "type": "address"
        },
        {
          "internalType": "bool",
          "name": "_verified",
          "type": "bool"
        },
        {
          "internalType": "enum ComplianceModule.JurisdictionType",
          "name": "_jurisdiction",
          "type": "uint8"
        }
      ],
      "name": "setKYCStatus",
      "outputs": [],
      "stateMutability": "nonpayable",
      "type": "function"
    },
    {
      "inputs": [
        {
          "internalType": "uint256",
          "name": "_period",
          "type": "uint256"
        }
      ],
      "name": "setKYCValidityPeriod",
      "outputs": [],
      "stateMutability": "nonpayable",
      "type": "function"
    },
    {
      "inputs": [
        {
          "internalType": "address",
          "name": "_user",
          "type": "address"
        },
        {
          "internalType": "bool",
          "name": "_restricted",
          "type": "bool"
        }
      ],
      "name": "setUserRestriction",
      "outputs": [],
      "stateMutability": "nonpayable",
      "type": "function"
    },
    {
      "inputs": [
        {
          "internalType": "address",
          "name": "newOwner",
          "type": "address"
        }
      ],
      "name": "transferOwnership",
      "outputs": [],
      "stateMutability": "nonpayable",
      "type": "function"
    },
    {
      "inputs": [
        {
          "internalType": "address",
          "name": "",
          "type": "address"
        }
      ],
      "name": "userCompliance",
      "outputs": [
        {
          "internalType": "bool",
          "name": "kycVerified",
          "type": "bool"
        },
        {
          "internalType": "bool",
          "name": "accreditedInvestor",
          "type": "bool"
        },
        {
          "internalType": "enum ComplianceModule.JurisdictionType",
          "name": "jurisdiction",
          "type": "uint8"
        },
        {
          "internalType": "uint256",
          "name": "verificationDate",
          "type": "uint256"
        },
        {
          "internalType": "uint256",
          "name": "expirationDate",
          "type": "uint256"
        },
        {
          "internalType": "bool",
          "name": "restricted",
          "type": "bool"
        }
      ],
      "stateMutability": "view",
      "type": "function"
    }
  ],
  "bytecode": "0x60806040526301e1338060035534801561001857600080fd5b50338061003f57604051631e4fbdf760e01b81526000600482015260240160405180910390fd5b6100488161004e565b5061009e565b600080546001600160a01b038381166001600160a01b0319831681178455604051919092169283917f8be0079c531659141344cd1fd0a4f28419497f9722a3daafe3b4186f6b6457e09190a35050565b610dfa806100ad6000396000f3fe608060405234801561001057600080fd5b50600436106101005760003560e01c8063732b7e8c11610097578063e04b2b8d11610066578063e04b2b8d14610276578063eda0ee8214610289578063f2fde38b146102ac578063fc4a30ca146102bf57600080fd5b8063732b7e8c146102225780638da5cb5b1461023557806391afeda514610250578063cc5d56751461026357600080fd5b806355179692116100d35780635517969214610186578063591aa483146101a657806366728c98146101b9578063715018a61461021a57600080fd5b806317c5e62c146101055780632d598d7b1461011a5780634bb6e7661461016057806354b7636e14610173575b600080fd5b610118610113366004610a32565b6102d6565b005b61014b610128366004610a67565b6001600160a01b0316600090815260016020526040902054610100900460ff1690565b60405190151581526020015b60405180910390f35b61014b61016e366004610a82565b6102e3565b61014b610181366004610a67565b610307565b610199610194366004610a67565b61040f565b6040516101579190610aed565b6101186101b4366004610b50565b6104d8565b6102086101c7366004610a67565b6001602081905260009182526040909120805491810154600282015460039092015460ff808516946101008104821694620100009091048216939290911686565b60405161015796959493929190610b7a565b61011861054b565b610118610230366004610bc6565b61055f565b6000546040516001600160a01b039091168152602001610157565b61011861025e366004610c55565b61065b565b610118610271366004610cef565b610882565b610118610284366004610b50565b610914565b61014b610297366004610d0b565b60026020526000908152604090205460ff1681565b6101186102ba366004610a67565b610977565b6102c860035481565b604051908152602001610157565b6102de6109b5565b600355565b60006102ee83610307565b80156102fe57506102fe82610307565b90505b92915050565b6001600160a01b0381166000908152600160209081526040808320815160c081018352815460ff8082161515835261010082048116151595830195909552859491938401916201000090910416600481111561036557610365610ab5565b600481111561037657610376610ab5565b8152600182015460208201526002820154604082015260039091015460ff161515606090910152805190915080156103b2575080608001514211155b80156103c057508060a00151155b8015610408575060026000826040015160048111156103e1576103e1610ab5565b60048111156103f2576103f2610ab5565b815260208101919091526040016000205460ff16155b9392505050565b6040805160c0808201835260008083526020808401829052838501829052606084018290526080840182905260a084018290526001600160a01b0386168252600181529084902084519283018552805460ff80821615158552610100820481161515938501939093529394929390928401916201000090910416600481111561049a5761049a610ab5565b60048111156104ab576104ab610ab5565b8152600182015460208201526002820154604082015260039091015460ff16151560609091015292915050565b6104e06109b5565b6001600160a01b0382166000818152600160205260409081902080548415156101000261ff0019909116179055517f2bf685be4d330998f97e2094ef535a35dfb76c0a75045ccd5d79bd237e7723ae9061053f90841515815260200190565b60405180910390a25050565b6105536109b5565b61055d60006109e2565b565b6105676109b5565b6001600160a01b0383166000908152600160205260409020805483151560ff198216811783558391839162ff0000191662ff00ff1990911617620100008360048111156105b6576105b6610ab5565b021790555042600182018190556003546105cf91610d3c565b6002820155821561062057836001600160a01b03167f5901206b39a68f7382670879562e87f070c1b1e9b39a271c4b1d1a4993a0ea0a836040516106139190610d4f565b60405180910390a2610655565b6040516001600160a01b038516907ffb4ca6a2470de95e9f648557fae63380f22c4b760bd27b0571caf5977a30278a90600090a25b50505050565b6106636109b5565b848314801561067157508481145b6106ba5760405162461bcd60e51b8152602060048201526015602482015274082e4e4c2f240d8cadccee8d040dad2e6dac2e8c6d605b1b60448201526064015b60405180910390fd5b60005b85811015610879576000600160008989858181106106dd576106dd610d5d565b90506020020160208101906106f29190610a67565b6001600160a01b03166001600160a01b03168152602001908152602001600020905085858381811061072657610726610d5d565b905060200201602081019061073b9190610d73565b815460ff191690151517815583838381811061075957610759610d5d565b905060200201602081019061076e9190610d0b565b8154829062ff000019166201000083600481111561078e5761078e610ab5565b021790555042600182018190556003546107a791610d3c565b60028201558585838181106107be576107be610d5d565b90506020020160208101906107d39190610d73565b15610866578787838181106107ea576107ea610d5d565b90506020020160208101906107ff9190610a67565b6001600160a01b03167f5901206b39a68f7382670879562e87f070c1b1e9b39a271c4b1d1a4993a0ea0a85858581811061083b5761083b610d5d565b90506020020160208101906108509190610d0b565b60405161085d9190610d4f565b60405180910390a25b508061087181610d8e565b9150506106bd565b50505050505050565b61088a6109b5565b80600260008460048111156108a1576108a1610ab5565b60048111156108b2576108b2610ab5565b815260200190815260200160002060006101000a81548160ff0219169083151502179055507ffbb10d36918ec2263bce03c853fbf409527eab535631872f8dac5d6b3c66e52d8282604051610908929190610da7565b60405180910390a15050565b61091c6109b5565b6001600160a01b038216600081815260016020908152604091829020600301805460ff191685151590811790915591519182527fa4c7c762da89739f7bccfe10baa362fcfb837b72d023d65eb491ef164a046902910161053f565b61097f6109b5565b6001600160a01b0381166109a957604051631e4fbdf760e01b8152600060048201526024016106b1565b6109b2816109e2565b50565b6000546001600160a01b0316331461055d5760405163118cdaa760e01b81523360048201526024016106b1565b600080546001600160a01b038381166001600160a01b0319831681178455604051919092169283917f8be0079c531659141344cd1fd0a4f28419497f9722a3daafe3b4186f6b6457e09190a35050565b600060208284031215610a4457600080fd5b5035919050565b80356001600160a01b0381168114610a6257600080fd5b919050565b600060208284031215610a7957600080fd5b6102fe82610a4b565b60008060408385031215610a9557600080fd5b610a9e83610a4b565b9150610aac60208401610a4b565b90509250929050565b634e487b7160e01b600052602160045260246000fd5b60058110610ae957634e487b7160e01b600052602160045260246000fd5b9052565b600060c0820190508251151582526020830151151560208301526040830151610b196040840182610acb565b50606083015160608301526080830151608083015260a0830151151560a083015292915050565b80358015158114610a6257600080fd5b60008060408385031215610b6357600080fd5b610b6c83610a4b565b9150610aac60208401610b40565b8615158152851515602082015260c08101610b986040830187610acb565b84606083015283608083015282151560a0830152979650505050505050565b803560058110610a6257600080fd5b600080600060608486031215610bdb57600080fd5b610be484610a4b565b9250610bf260208501610b40565b9150610c0060408501610bb7565b90509250925092565b60008083601f840112610c1b57600080fd5b50813567ffffffffffffffff811115610c3357600080fd5b6020830191508360208260051b8501011115610c4e57600080fd5b9250929050565b60008060008060008060608789031215610c6e57600080fd5b863567ffffffffffffffff80821115610c8657600080fd5b610c928a838b01610c09565b90985096506020890135915080821115610cab57600080fd5b610cb78a838b01610c09565b90965094506040890135915080821115610cd057600080fd5b50610cdd89828a01610c09565b979a9699509497509295939492505050565b60008060408385031215610d0257600080fd5b610b6c83610bb7565b600060208284031215610d1d57600080fd5b6102fe82610bb7565b634e487b7160e01b600052601160045260246000fd5b8082018082111561030157610301610d26565b602081016103018284610acb565b634e487b7160e01b600052603260045260246000fd5b600060208284031215610d8557600080fd5b6102fe82610b40565b600060018201610da057610da0610d26565b5060010190565b60408101610db58285610acb565b8215156020830152939250505056fea2646970667358221220d165ccf70d0ae8e162041bae369ef70d10ab8044fb43062b23c9f1a7cdac338b64736f6c63430008140033",
  "linkReferences": {},
  "deployedLinkReferences": {}
}