{
  "_format": "hh-sol-artifact-1",
  "contractName": "RWAToken",
  "sourceName": "contracts/tokens/RWAToken.sol",
  "abi": [
    {
      "inputs": [
        {
          "internalType": "string",
          "name": "_name",
          "type": "string"
        },
        {
          "internalType": "string",
          "name": "_symbol",
          "type": "string"
        },
        {
          "internalType": "uint256",
          "name": "_assetId",
          "type": "uint256"
        },
        {
          "internalType": "uint256",
          "name": "_assetValuation",
          "type": "uint256"
        },
        {
          "internalType": "address",
          "name": "_assetRegistry",
          "type": "address"
        },
        {
          "internalType": "address",
          "name": "_initialOwner",
          "type": "address"
        }
      ],
      "stateMutability": "nonpayable",
      "type": "constructor"
    },
    {
      "inputs": [
        {
          "internalType": "address",
          "name": "spender",
          "type": "address"
        },
        {
          "internalType": "uint256",
          "name": "allowance",
          "type": "uint256"
        },
        {
          "internalType": "uint256",
          "name": "needed",
          "type": "uint256"
        }
      ],
      "name": "ERC20InsufficientAllowance",
      "type": "error"
    },
    {
      "inputs": [
        {
          "internalType": "address",
          "name": "sender",
          "type": "address"
        },
        {
          "internalType": "uint256",
          "name": "balance",
          "type": "uint256"
        },
        {
          "internalType": "uint256",
          "name": "needed",
          "type": "uint256"
        }
      ],
      "name": "ERC20InsufficientBalance",
      "type": "error"
    },
    {
      "inputs": [
        {
          "internalType": "address",
          "name": "approver",
          "type": "address"
        }
      ],
      "name": "ERC20InvalidApprover",
      "type": "error"
    },
    {
      "inputs": [
        {
          "internalType": "address",
          "name": "receiver",
          "type": "address"
        }
      ],
      "name": "ERC20InvalidReceiver",
      "type": "error"
    },
    {
      "inputs": [
        {
          "internalType": "address",
          "name": "sender",
          "type": "address"
        }
      ],
      "name": "ERC20InvalidSender",
      "type": "error"
    },
    {
      "inputs": [
        {
          "internalType": "address",
          "name": "spender",
          "type": "address"
        }
      ],
      "name": "ERC20InvalidSpender",
      "type": "error"
    },
    {
      "inputs": [
        {
          "internalType": "address",
          "name": "owner",
          "type": "address"
        }
      ],
      "name": "OwnableInvalidOwner",
      "type": "error"
    },
    {
      "inputs": [
        {
          "internalType": "address",
          "name": "account",
          "type": "address"
        }
      ],
      "name": "OwnableUnauthorizedAccount",
      "type": "error"
    },
    {
      "anonymous": false,
      "inputs": [
        {
          "indexed": true,
          "internalType": "address",
          "name": "account",
          "type": "address"
        }
      ],
      "name": "AddressRemovedFromWhitelist",
      "type": "event"
    },
    {
      "anonymous": false,
      "inputs": [
        {
          "indexed": true,
          "internalType": "address",
          "name": "account",
          "type": "address"
        }
      ],
      "name": "AddressWhitelisted",
      "type": "event"
    },
    {
      "anonymous": false,
      "inputs": [
        {
          "indexed": true,
          "internalType": "address",
          "name": "owner",
          "type": "address"
        },
        {
          "indexed": true,
          "internalType": "address",
          "name": "spender",
          "type": "address"
        },
        {
          "indexed": false,
          "internalType": "uint256",
          "name": "value",
          "type": "uint256"
        }
      ],
      "name": "Approval",
      "type": "event"
    },
    {
      "anonymous": false,
      "inputs": [
        {
          "indexed": true,
          "internalType": "address",
          "name": "previousOwner",
          "type": "address"
        },
        {
          "indexed": true,
          "internalType": "address",
          "name": "newOwner",
          "type": "address"
        }
      ],
      "name": "OwnershipTransferred",
      "type": "event"
    },
    {
      "anonymous": false,
      "inputs": [
        {
          "indexed": true,
          "internalType": "address",
          "name": "from",
          "type": "address"
        },
        {
          "indexed": true,
          "internalType": "address",
          "name": "to",
          "type": "address"
        },
        {
          "indexed": false,
          "internalType": "uint256",
          "name": "value",
          "type": "uint256"
        }
      ],
      "name": "Transfer",
      "type": "event"
    },
    {
      "anonymous": false,
      "inputs": [],
      "name": "TransfersDisabled",
      "type": "event"
    },
    {
      "anonymous": false,
      "inputs": [],
      "name": "TransfersEnabled",
      "type": "event"
    },
    {
      "inputs": [
        {
          "internalType": "address",
          "name": "_account",
          "type": "address"
        }
      ],
      "name": "addToWhitelist",
      "outputs": [],
      "stateMutability": "nonpayable",
      "type": "function"
    },
    {
      "inputs": [
        {
          "internalType": "address",
          "name": "owner",
          "type": "address"
        },
        {
          "internalType": "address",
          "name": "spender",
          "type": "address"
        }
      ],
      "name": "allowance",
      "outputs": [
        {
          "internalType": "uint256",
          "name": "",
          "type": "uint256"
        }
      ],
      "stateMutability": "view",
      "type": "function"
    },
    {
      "inputs": [
        {
          "internalType": "address",
          "name": "spender",
          "type": "address"
        },
        {
          "internalType": "uint256",
          "name": "value",
          "type": "uint256"
        }
      ],
      "name": "approve",
      "outputs": [
        {
          "internalType": "bool",
          "name": "",
          "type": "bool"
        }
      ],
      "stateMutability": "nonpayable",
      "type": "function"
    },
    {
      "inputs": [],
      "name": "assetId",
      "outputs": [
        {
          "internalType": "uint256",
          "name": "",
          "type": "uint256"
        }
      ],
      "stateMutability": "view",
      "type": "function"
    },
    {
      "inputs": [],
      "name": "assetRegistry",
      "outputs": [
        {
          "internalType": "address",
          "name": "",
          "type": "address"
        }
      ],
      "stateMutability": "view",
      "type": "function"
    },
    {
      "inputs": [],
      "name": "assetValuation",
      "outputs": [
        {
          "internalType": "uint256",
          "name": "",
          "type": "uint256"
        }
      ],
      "stateMutability": "view",
      "type": "function"
    },
    {
      "inputs": [
        {
          "internalType": "address",
          "name": "account",
          "type": "address"
        }
      ],
      "name": "balanceOf",
      "outputs": [
        {
          "internalType": "uint256",
          "name": "",
          "type": "uint256"
        }
      ],
      "stateMutability": "view",
      "type": "function"
    },
    {
      "inputs": [],
      "name": "decimals",
      "outputs": [
        {
          "internalType": "uint8",
          "name": "",
          "type": "uint8"
        }
      ],
      "stateMutability": "view",
      "type": "function"
    },
    {
      "inputs": [],
      "name": "disableTransfers",
      "outputs": [],
      "stateMutability": "nonpayable",
      "type": "function"
    },
    {
      "inputs": [],
      "name": "enableTransfers",
      "outputs": [],
      "stateMutability": "nonpayable",
      "type": "function"
    },
    {
      "inputs": [
        {
          "internalType": "address",
          "name": "_to",
          "type": "address"
        },
        {
          "internalType": "uint256",
          "name": "_amount",
          "type": "uint256"
        }
      ],
      "name": "mint",
      "outputs": [],
      "stateMutability": "nonpayable",
      "type": "function"
    },
    {
      "inputs": [],
      "name": "name",
      "outputs": [
        {
          "internalType": "string",
          "name": "",
          "type": "string"
        }
      ],
      "stateMutability": "view",
      "type": "function"
    },
    {
      "inputs": [],
      "name": "owner",
      "outputs": [
        {
          "internalType": "address",
          "name": "",
          "type": "address"
        }
      ],
      "stateMutability": "view",
      "type": "function"
    },
    {
      "inputs": [
        {
          "internalType": "address",
          "name": "_account",
          "type": "address"
        }
      ],
      "name": "removeFromWhitelist",
      "outputs": [],
      "stateMutability": "nonpayable",
      "type": "function"
    },
    {
      "inputs": [],
      "name": "renounceOwnership",
      "outputs": [],
      "stateMutability": "nonpayable",
      "type": "function"
    },
    {
      "inputs": [],
      "name": "symbol",
      "outputs": [
        {
          "internalType": "string",
          "name": "",
          "type": "string"
        }
      ],
      "stateMutability": "view",
      "type": "function"
    },
    {
      "inputs": [],
      "name": "totalSupply",
      "outputs": [
        {
          "internalType": "uint256",
          "name": "",
          "type": "uint256"
        }
      ],
      "stateMutability": "view",
      "type": "function"
    },
    {
      "inputs": [
        {
          "internalType": "address",
          "name": "to",
          "type": "address"
        },
        {
          "internalType": "uint256",
          "name": "amount",
          "type": "uint256"
        }
      ],
      "name": "transfer",
      "outputs": [
        {
          "internalType": "bool",
          "name": "",
          "type": "bool"
        }
      ],
      "stateMutability": "nonpayable",
      "type": "function"
    },
    {
      "inputs": [
        {
          "internalType": "address",
          "name": "from",
          "type": "address"
        },
        {
          "internalType": "address",
          "name": "to",
          "type": "address"
        },
        {
          "internalType": "uint256",
          "name": "amount",
          "type": "uint256"
        }
      ],
      "name": "transferFrom",
      "outputs": [
        {
          "internalType": "bool",
          "name": "",
          "type": "bool"
        }
      ],
      "stateMutability": "nonpayable",
      "type": "function"
    },
    {
      "inputs": [
        {
          "internalType": "address",
          "name": "newOwner",
          "type": "address"
        }
      ],
      "name": "transferOwnership",
      "outputs": [],
      "stateMutability": "nonpayable",
      "type": "function"
    },
    {
      "inputs": [],
      "name": "transfersEnabled",
      "outputs": [
        {
          "internalType": "bool",
          "name": "",
          "type": "bool"
        }
      ],
      "stateMutability": "view",
      "type": "function"
    },
    {
      "inputs": [
        {
          "internalType": "uint256",
          "name": "_newValuation",
          "type": "uint256"
        }
      ],
      "name": "updateValuation",
      "outputs": [],
      "stateMutability": "nonpayable",
      "type": "function"
    },
    {
      "inputs": [
        {
          "internalType": "address",
          "name": "",
          "type": "address"
        }
      ],
      "name": "whitelist",
      "outputs": [
        {
          "internalType": "bool",
          "name": "",
          "type": "bool"
        }
      ],
      "stateMutability": "view",
      "type": "function"
    }
  ],
  "bytecode": "0x60806040523480156200001157600080fd5b506040516200109838038062001098833981016040819052620000349162000211565b808686600362000045838262000341565b50600462000054828262000341565b5050506001600160a01b0381166200008657604051631e4fbdf760e01b81526000600482015260240160405180910390fd5b6200009181620000dd565b50600693909355600791909155600880546001600160a81b0319166001600160a01b03928316179055166000908152600960205260409020805460ff19166001179055506200040d9050565b600580546001600160a01b038381166001600160a01b0319831681179093556040519116919082907f8be0079c531659141344cd1fd0a4f28419497f9722a3daafe3b4186f6b6457e090600090a35050565b634e487b7160e01b600052604160045260246000fd5b600082601f8301126200015757600080fd5b81516001600160401b03808211156200017457620001746200012f565b604051601f8301601f19908116603f011681019082821181831017156200019f576200019f6200012f565b81604052838152602092508683858801011115620001bc57600080fd5b600091505b83821015620001e05785820183015181830184015290820190620001c1565b600093810190920192909252949350505050565b80516001600160a01b03811681146200020c57600080fd5b919050565b60008060008060008060c087890312156200022b57600080fd5b86516001600160401b03808211156200024357600080fd5b620002518a838b0162000145565b975060208901519150808211156200026857600080fd5b506200027789828a0162000145565b95505060408701519350606087015192506200029660808801620001f4565b9150620002a660a08801620001f4565b90509295509295509295565b600181811c90821680620002c757607f821691505b602082108103620002e857634e487b7160e01b600052602260045260246000fd5b50919050565b601f8211156200033c57600081815260208120601f850160051c81016020861015620003175750805b601f850160051c820191505b81811015620003385782815560010162000323565b5050505b505050565b81516001600160401b038111156200035d576200035d6200012f565b62000375816200036e8454620002b2565b84620002ee565b602080601f831160018114620003ad5760008415620003945750858301515b600019600386901b1c1916600185901b17855562000338565b600085815260208120601f198616915b82811015620003de57888601518255948401946001909101908401620003bd565b5085821015620003fd5787850151600019600388901b60f8161c191681555b5050505050600190811b01905550565b610c7b806200041d6000396000f3fe608060405234801561001057600080fd5b506004361061014c5760003560e01c8063715018a6116100c3578063a9059cbb1161007c578063a9059cbb146102af578063af35c6c7146102c2578063bef97c87146102ca578063dd62ed3e146102de578063e43252d714610317578063f2fde38b1461032a57600080fd5b8063715018a6146102315780638ab1d681146102395780638da5cb5b1461024c57806395d89b4114610271578063979d7e86146102795780639b19251a1461028c57600080fd5b8063313ce56711610115578063313ce567146101cc5780633a67a0f6146101db578063406dd96b146101e357806340c10f19146101ec57806344de240a146101ff57806370a082311461020857600080fd5b806243286e1461015157806306fdde0314610166578063095ea7b31461018457806318160ddd146101a757806323b872dd146101b9575b600080fd5b61016461015f366004610ab3565b61033d565b005b61016e61034a565b60405161017b9190610acc565b60405180910390f35b610197610192366004610b36565b6103dc565b604051901515815260200161017b565b6002545b60405190815260200161017b565b6101976101c7366004610b60565b6103f6565b6040516012815260200161017b565b6101646104a5565b6101ab60075481565b6101646101fa366004610b36565b6104e5565b6101ab60065481565b6101ab610216366004610b9c565b6001600160a01b031660009081526020819052604090205490565b6101646104fb565b610164610247366004610b9c565b61050f565b6005546001600160a01b03165b6040516001600160a01b03909116815260200161017b565b61016e610560565b600854610259906001600160a01b031681565b61019761029a366004610b9c565b60096020526000908152604090205460ff1681565b6101976102bd366004610b36565b61056f565b61016461060e565b60085461019790600160a01b900460ff1681565b6101ab6102ec366004610bb7565b6001600160a01b03918216600090815260016020908152604080832093909416825291909152205490565b610164610325366004610b9c565b610654565b610164610338366004610b9c565b6106a8565b6103456106e6565b600755565b60606003805461035990610bea565b80601f016020809104026020016040519081016040528092919081815260200182805461038590610bea565b80156103d25780601f106103a7576101008083540402835291602001916103d2565b820191906000526020600020905b8154815290600101906020018083116103b557829003601f168201915b5050505050905090565b6000336103ea818585610713565b60019150505b92915050565b600854600090600160a01b900460ff168061042957506001600160a01b03841660009081526009602052604090205460ff165b8061044c57506001600160a01b03831660009081526009602052604090205460ff165b6104925760405162461bcd60e51b8152602060048201526012602482015271151c985b9cd9995c9cc8191a5cd8589b195960721b60448201526064015b60405180910390fd5b61049d848484610725565b949350505050565b6104ad6106e6565b6008805460ff60a01b191690556040517f8574adcfb0eb8c46c67db25ca9cd9d7b2e5c6606b1da1f502824783bba70aeef90600090a1565b6104ed6106e6565b6104f78282610749565b5050565b6105036106e6565b61050d600061077f565b565b6105176106e6565b6001600160a01b038116600081815260096020526040808220805460ff19169055517f535611fb62fa2a833988f283b779e417e996813e44046f521d76c17b5943b08c9190a250565b60606004805461035990610bea565b600854600090600160a01b900460ff168061059957503360009081526009602052604090205460ff165b806105bc57506001600160a01b03831660009081526009602052604090205460ff165b6105fd5760405162461bcd60e51b8152602060048201526012602482015271151c985b9cd9995c9cc8191a5cd8589b195960721b6044820152606401610489565b61060783836107d1565b9392505050565b6106166106e6565b6008805460ff60a01b1916600160a01b1790556040517feadb24812ab3c9a55c774958184293ebdb6c7f6a2dbab11f397d80c86feb65d390600090a1565b61065c6106e6565b6001600160a01b038116600081815260096020526040808220805460ff19166001179055517f4f783c179409b4127238bc9c990bc99b9a651666a0d20b51d6c42849eb88466d9190a250565b6106b06106e6565b6001600160a01b0381166106da57604051631e4fbdf760e01b815260006004820152602401610489565b6106e38161077f565b50565b6005546001600160a01b0316331461050d5760405163118cdaa760e01b8152336004820152602401610489565b61072083838360016107df565b505050565b6000336107338582856108b5565b61073e85858561092e565b506001949350505050565b6001600160a01b0382166107735760405163ec442f0560e01b815260006004820152602401610489565b6104f760008383610989565b600580546001600160a01b038381166001600160a01b0319831681179093556040519116919082907f8be0079c531659141344cd1fd0a4f28419497f9722a3daafe3b4186f6b6457e090600090a35050565b6000336103ea81858561092e565b6001600160a01b0384166108095760405163e602df0560e01b815260006004820152602401610489565b6001600160a01b03831661083357604051634a1406b160e11b815260006004820152602401610489565b6001600160a01b03808516600090815260016020908152604080832093871683529290522082905580156108af57826001600160a01b0316846001600160a01b03167f8c5be1e5ebec7d5bd14f71427d1e84f3dd0314c0f7b2291e5b200ac8c7c3b925846040516108a691815260200190565b60405180910390a35b50505050565b6001600160a01b038381166000908152600160209081526040808320938616835292905220546000198110156108af578181101561091f57604051637dc7a0d960e11b81526001600160a01b03841660048201526024810182905260448101839052606401610489565b6108af848484840360006107df565b6001600160a01b03831661095857604051634b637e8f60e11b815260006004820152602401610489565b6001600160a01b0382166109825760405163ec442f0560e01b815260006004820152602401610489565b6107208383835b6001600160a01b0383166109b45780600260008282546109a99190610c24565b90915550610a269050565b6001600160a01b03831660009081526020819052604090205481811015610a075760405163391434e360e21b81526001600160a01b03851660048201526024810182905260448101839052606401610489565b6001600160a01b03841660009081526020819052604090209082900390555b6001600160a01b038216610a4257600280548290039055610a61565b6001600160a01b03821660009081526020819052604090208054820190555b816001600160a01b0316836001600160a01b03167fddf252ad1be2c89b69c2b068fc378daa952ba7f163c4a11628f55a4df523b3ef83604051610aa691815260200190565b60405180910390a3505050565b600060208284031215610ac557600080fd5b5035919050565b600060208083528351808285015260005b81811015610af957858101830151858201604001528201610add565b506000604082860101526040601f19601f8301168501019250505092915050565b80356001600160a01b0381168114610b3157600080fd5b919050565b60008060408385031215610b4957600080fd5b610b5283610b1a565b946020939093013593505050565b600080600060608486031215610b7557600080fd5b610b7e84610b1a565b9250610b8c60208501610b1a565b9150604084013590509250925092565b600060208284031215610bae57600080fd5b61060782610b1a565b60008060408385031215610bca57600080fd5b610bd383610b1a565b9150610be160208401610b1a565b90509250929050565b600181811c90821680610bfe57607f821691505b602082108103610c1e57634e487b7160e01b600052602260045260246000fd5b50919050565b808201808211156103f057634e487b7160e01b600052601160045260246000fdfea26469706673582212202b668b4e8d709120a80f13eb479c68aed393178f12595f99e3acde778d4769d264736f6c63430008140033",
  "linkReferences": {},
  "deployedLinkReferences": {}
}