{
  "_format": "hh-sol-artifact-1",
  "contractName": "ValuationOracle",
  "sourceName": "contracts/oracle/ValuationOracle.sol",
  "abi": [
    {
      "inputs": [],
      "stateMutability": "nonpayable",
      "type": "constructor"
    },
    {
      "inputs": [
        {
          "internalType": "address",
          "name": "owner",
          "type": "address"
        }
      ],
      "name": "OwnableInvalidOwner",
      "type": "error"
    },
    {
      "inputs": [
        {
          "internalType": "address",
          "name": "account",
          "type": "address"
        }
      ],
      "name": "OwnableUnauthorizedAccount",
      "type": "error"
    },
    {
      "anonymous": false,
      "inputs": [
        {
          "indexed": true,
          "internalType": "address",
          "name": "previousOwner",
          "type": "address"
        },
        {
          "indexed": true,
          "internalType": "address",
          "name": "newOwner",
          "type": "address"
        }
      ],
      "name": "OwnershipTransferred",
      "type": "event"
    },
    {
      "anonymous": false,
      "inputs": [
        {
          "indexed": true,
          "internalType": "uint256",
          "name": "assetId",
          "type": "uint256"
        },
        {
          "indexed": false,
          "internalType": "uint256",
          "name": "price",
          "type": "uint256"
        },
        {
          "indexed": false,
          "internalType": "uint256",
          "name": "confidence",
          "type": "uint256"
        },
        {
          "indexed": false,
          "internalType": "uint256",
          "name": "timestamp",
          "type": "uint256"
        }
      ],
      "name": "PriceUpdated",
      "type": "event"
    },
    {
      "anonymous": false,
      "inputs": [
        {
          "indexed": true,
          "internalType": "address",
          "name": "updater",
          "type": "address"
        }
      ],
      "name": "UpdaterAuthorized",
      "type": "event"
    },
    {
      "anonymous": false,
      "inputs": [
        {
          "indexed": true,
          "internalType": "address",
          "name": "updater",
          "type": "address"
        }
      ],
      "name": "UpdaterRevoked",
      "type": "event"
    },
    {
      "inputs": [
        {
          "internalType": "uint256",
          "name": "",
          "type": "uint256"
        }
      ],
      "name": "assetPrices",
      "outputs": [
        {
          "internalType": "uint256",
          "name": "currentPrice",
          "type": "uint256"
        },
        {
          "internalType": "uint256",
          "name": "currentConfidence",
          "type": "uint256"
        },
        {
          "internalType": "uint256",
          "name": "lastUpdate",
          "type": "uint256"
        }
      ],
      "stateMutability": "view",
      "type": "function"
    },
    {
      "inputs": [
        {
          "internalType": "address",
          "name": "_updater",
          "type": "address"
        }
      ],
      "name": "authorizeUpdater",
      "outputs": [],
      "stateMutability": "nonpayable",
      "type": "function"
    },
    {
      "inputs": [
        {
          "internalType": "address",
          "name": "",
          "type": "address"
        }
      ],
      "name": "authorizedUpdaters",
      "outputs": [
        {
          "internalType": "bool",
          "name": "",
          "type": "bool"
        }
      ],
      "stateMutability": "view",
      "type": "function"
    },
    {
      "inputs": [
        {
          "internalType": "uint256",
          "name": "_assetId",
          "type": "uint256"
        }
      ],
      "name": "getHistoryLength",
      "outputs": [
        {
          "internalType": "uint256",
          "name": "",
          "type": "uint256"
        }
      ],
      "stateMutability": "view",
      "type": "function"
    },
    {
      "inputs": [
        {
          "internalType": "uint256",
          "name": "_assetId",
          "type": "uint256"
        }
      ],
      "name": "getLatestPrice",
      "outputs": [
        {
          "internalType": "uint256",
          "name": "price",
          "type": "uint256"
        },
        {
          "internalType": "uint256",
          "name": "confidence",
          "type": "uint256"
        },
        {
          "internalType": "uint256",
          "name": "timestamp",
          "type": "uint256"
        }
      ],
      "stateMutability": "view",
      "type": "function"
    },
    {
      "inputs": [
        {
          "internalType": "uint256",
          "name": "_assetId",
          "type": "uint256"
        },
        {
          "internalType": "uint256",
          "name": "_index",
          "type": "uint256"
        }
      ],
      "name": "getPriceAt",
      "outputs": [
        {
          "internalType": "uint256",
          "name": "price",
          "type": "uint256"
        },
        {
          "internalType": "uint256",
          "name": "confidence",
          "type": "uint256"
        },
        {
          "internalType": "uint256",
          "name": "timestamp",
          "type": "uint256"
        }
      ],
      "stateMutability": "view",
      "type": "function"
    },
    {
      "inputs": [
        {
          "internalType": "uint256",
          "name": "_assetId",
          "type": "uint256"
        }
      ],
      "name": "getPriceHistory",
      "outputs": [
        {
          "components": [
            {
              "internalType": "uint256",
              "name": "price",
              "type": "uint256"
            },
            {
              "internalType": "uint256",
              "name": "confidence",
              "type": "uint256"
            },
            {
              "internalType": "uint256",
              "name": "timestamp",
              "type": "uint256"
            }
          ],
          "internalType": "struct ValuationOracle.PriceData[]",
          "name": "",
          "type": "tuple[]"
        }
      ],
      "stateMutability": "view",
      "type": "function"
    },
    {
      "inputs": [],
      "name": "maxHistoryLength",
      "outputs": [
        {
          "internalType": "uint256",
          "name": "",
          "type": "uint256"
        }
      ],
      "stateMutability": "view",
      "type": "function"
    },
    {
      "inputs": [],
      "name": "owner",
      "outputs": [
        {
          "internalType": "address",
          "name": "",
          "type": "address"
        }
      ],
      "stateMutability": "view",
      "type": "function"
    },
    {
      "inputs": [],
      "name": "renounceOwnership",
      "outputs": [],
      "stateMutability": "nonpayable",
      "type": "function"
    },
    {
      "inputs": [
        {
          "internalType": "address",
          "name": "_updater",
          "type": "address"
        }
      ],
      "name": "revokeUpdater",
      "outputs": [],
      "stateMutability": "nonpayable",
      "type": "function"
    },
    {
      "inputs": [
        {
          "internalType": "uint256",
          "name": "_length",
          "type": "uint256"
        }
      ],
      "name": "setMaxHistoryLength",
      "outputs": [],
      "stateMutability": "nonpayable",
      "type": "function"
    },
    {
      "inputs": [
        {
          "internalType": "address",
          "name": "newOwner",
          "type": "address"
        }
      ],
      "name": "transferOwnership",
      "outputs": [],
      "stateMutability": "nonpayable",
      "type": "function"
    },
    {
      "inputs": [
        {
          "internalType": "uint256",
          "name": "_assetId",
          "type": "uint256"
        },
        {
          "internalType": "uint256",
          "name": "_price",
          "type": "uint256"
        },
        {
          "internalType": "uint256",
          "name": "_confidence",
          "type": "uint256"
        }
      ],
      "name": "updatePrice",
      "outputs": [],
      "stateMutability": "nonpayable",
      "type": "function"
    }
  ],
  "bytecode": "0x6080604052601e60035534801561001557600080fd5b50338061003c57604051631e4fbdf760e01b81526000600482015260240160405180910390fd5b6100458161004b565b5061009b565b600080546001600160a01b038381166001600160a01b0319831681178455604051919092169283917f8be0079c531659141344cd1fd0a4f28419497f9722a3daafe3b4186f6b6457e09190a35050565b6109b2806100aa6000396000f3fe608060405234801561001057600080fd5b50600436106100ea5760003560e01c80638ff29cfe1161008c578063b94fe91711610066578063b94fe9171461021b578063d980f9d51461024d578063f2fde38b14610260578063fd1a98a51461027357600080fd5b80638ff29cfe146101b25780639cbe6097146101e5578063b38fe06b146101f857600080fd5b80633c932bef116100c85780633c932bef146101335780634191c45b14610146578063715018a61461018f5780638da5cb5b1461019757600080fd5b80630de3bff6146100ef5780630f4361291461010457806339cbe9e514610117575b600080fd5b6101026100fd366004610805565b610293565b005b61010261011236600461081e565b6102a0565b61012060035481565b6040519081526020015b60405180910390f35b61010261014136600461084a565b610543565b610174610154366004610805565b600160208190526000918252604090912080549181015460029091015483565b6040805193845260208401929092529082015260600161012a565b610102610594565b6000546040516001600160a01b03909116815260200161012a565b6101d56101c036600461084a565b60026020526000908152604090205460ff1681565b604051901515815260200161012a565b6101026101f336600461084a565b6105a8565b610120610206366004610805565b60009081526001602052604090206003015490565b610174610229366004610805565b60008181526001602081905260409091208054918101546002909101549193909250565b61017461025b36600461087a565b6105fc565b61010261026e36600461084a565b6106b7565b610286610281366004610805565b6106f5565b60405161012a919061089c565b61029b610788565b600355565b3360009081526002602052604090205460ff16806102c857506000546001600160a01b031633145b61030a5760405162461bcd60e51b815260206004820152600e60248201526d139bdd08185d5d1a1bdc9a5e995960921b60448201526064015b60405180910390fd5b6000821161034a5760405162461bcd60e51b815260206004820152600d60248201526c496e76616c696420707269636560981b6044820152606401610301565b60008111801561035b575060648111155b61039c5760405162461bcd60e51b8152602060048201526012602482015271496e76616c696420636f6e666964656e636560701b6044820152606401610301565b60008381526001602052604090208054156104e757604080516060810182528254815260018084015460208084019182526002808701549585019586526003808801805480870182556000828152949094209651938202909601928355925193820193909355935193909101929092559054905411156104e75760005b600382015461042a9060019061090b565b8110156104ad5760038201610440826001610924565b8154811061045057610450610937565b906000526020600020906003020182600301828154811061047357610473610937565b60009182526020909120825460039092020190815560018083015490820155600291820154910155806104a58161094d565b915050610419565b50806003018054806104c1576104c1610966565b600082815260208120600360001990930192830201818155600181018290556002015590555b82815560018101829055426002820181905560408051858152602081018590529081019190915284907fc6d3da45896ce1bca9d198309a2dbeea3c73a991748f8d88d796ffa06029de939060600160405180910390a250505050565b61054b610788565b6001600160a01b038116600081815260026020526040808220805460ff19169055517f27e810a75a9534f49f3874cd6aef1cd8ccd4fd9e24acb4c3813ba552851ef7969190a250565b61059c610788565b6105a660006107b5565b565b6105b0610788565b6001600160a01b038116600081815260026020526040808220805460ff19166001179055517ffbc99308a04b9b530a8dbc7eb620a7597c4b92ff15390ab23ffdd979b9c592e49190a250565b600082815260016020526040812060038101548291829185106106575760405162461bcd60e51b8152602060048201526013602482015272496e646578206f7574206f6620626f756e647360681b6044820152606401610301565b600081600301868154811061066e5761066e610937565b6000918252602091829020604080516060810182526003939093029091018054808452600182015494840185905260029091015492909101829052999198509650945050505050565b6106bf610788565b6001600160a01b0381166106e957604051631e4fbdf760e01b815260006004820152602401610301565b6106f2816107b5565b50565b606060016000838152602001908152602001600020600301805480602002602001604051908101604052809291908181526020016000905b8282101561077d578382906000526020600020906003020160405180606001604052908160008201548152602001600182015481526020016002820154815250508152602001906001019061072d565b505050509050919050565b6000546001600160a01b031633146105a65760405163118cdaa760e01b8152336004820152602401610301565b600080546001600160a01b038381166001600160a01b0319831681178455604051919092169283917f8be0079c531659141344cd1fd0a4f28419497f9722a3daafe3b4186f6b6457e09190a35050565b60006020828403121561081757600080fd5b5035919050565b60008060006060848603121561083357600080fd5b505081359360208301359350604090920135919050565b60006020828403121561085c57600080fd5b81356001600160a01b038116811461087357600080fd5b9392505050565b6000806040838503121561088d57600080fd5b50508035926020909101359150565b602080825282518282018190526000919060409081850190868401855b828110156108e857815180518552868101518786015285015185850152606090930192908501906001016108b9565b5091979650505050505050565b634e487b7160e01b600052601160045260246000fd5b8181038181111561091e5761091e6108f5565b92915050565b8082018082111561091e5761091e6108f5565b634e487b7160e01b600052603260045260246000fd5b60006001820161095f5761095f6108f5565b5060010190565b634e487b7160e01b600052603160045260246000fdfea264697066735822122049e05f2744fdb185444d75762433b8c6143404a6c107b1f7ff1f0a04672142d964736f6c63430008140033",
  "linkReferences": {},
  "deployedLinkReferences": {}
}