{
  "_format": "hh-sol-artifact-1",
  "contractName": "VerificationAnchor",
  "sourceName": "contracts/core/VerificationAnchor.sol",
  "abi": [
    {
      "inputs": [],
      "stateMutability": "nonpayable",
      "type": "constructor"
    },
    {
      "inputs": [
        {
          "internalType": "address",
          "name": "owner",
          "type": "address"
        }
      ],
      "name": "OwnableInvalidOwner",
      "type": "error"
    },
    {
      "inputs": [
        {
          "internalType": "address",
          "name": "account",
          "type": "address"
        }
      ],
      "name": "OwnableUnauthorizedAccount",
      "type": "error"
    },
    {
      "anonymous": false,
      "inputs": [
        {
          "indexed": true,
          "internalType": "uint256",
          "name": "requestId",
          "type": "uint256"
        },
        {
          "indexed": false,
          "internalType": "bytes32",
          "name": "verificationHash",
          "type": "bytes32"
        },
        {
          "indexed": false,
          "internalType": "uint256",
          "name": "gasLimit",
          "type": "uint256"
        }
      ],
      "name": "MessageSentToL1",
      "type": "event"
    },
    {
      "anonymous": false,
      "inputs": [
        {
          "indexed": true,
          "internalType": "address",
          "name": "previousOwner",
          "type": "address"
        },
        {
          "indexed": true,
          "internalType": "address",
          "name": "newOwner",
          "type": "address"
        }
      ],
      "name": "OwnershipTransferred",
      "type": "event"
    },
    {
      "anonymous": false,
      "inputs": [
        {
          "indexed": true,
          "internalType": "uint256",
          "name": "requestId",
          "type": "uint256"
        },
        {
          "indexed": false,
          "internalType": "bytes32",
          "name": "verificationHash",
          "type": "bytes32"
        },
        {
          "indexed": false,
          "internalType": "uint256",
          "name": "l1BlockNumber",
          "type": "uint256"
        },
        {
          "indexed": false,
          "internalType": "uint256",
          "name": "timestamp",
          "type": "uint256"
        }
      ],
      "name": "VerificationAnchored",
      "type": "event"
    },
    {
      "inputs": [
        {
          "internalType": "uint256",
          "name": "",
          "type": "uint256"
        }
      ],
      "name": "anchorRecords",
      "outputs": [
        {
          "internalType": "uint256",
          "name": "requestId",
          "type": "uint256"
        },
        {
          "internalType": "bytes32",
          "name": "verificationHash",
          "type": "bytes32"
        },
        {
          "internalType": "uint256",
          "name": "l1BlockNumber",
          "type": "uint256"
        },
        {
          "internalType": "uint256",
          "name": "timestamp",
          "type": "uint256"
        },
        {
          "internalType": "bool",
          "name": "anchored",
          "type": "bool"
        }
      ],
      "stateMutability": "view",
      "type": "function"
    },
    {
      "inputs": [
        {
          "internalType": "uint256",
          "name": "_requestId",
          "type": "uint256"
        },
        {
          "internalType": "bytes32",
          "name": "_verificationHash",
          "type": "bytes32"
        },
        {
          "internalType": "uint256",
          "name": "_l1BlockNumber",
          "type": "uint256"
        }
      ],
      "name": "anchorVerification",
      "outputs": [],
      "stateMutability": "nonpayable",
      "type": "function"
    },
    {
      "inputs": [
        {
          "internalType": "bytes32",
          "name": "",
          "type": "bytes32"
        }
      ],
      "name": "anchoredHashes",
      "outputs": [
        {
          "internalType": "bool",
          "name": "",
          "type": "bool"
        }
      ],
      "stateMutability": "view",
      "type": "function"
    },
    {
      "inputs": [],
      "name": "consensusEngine",
      "outputs": [
        {
          "internalType": "address",
          "name": "",
          "type": "address"
        }
      ],
      "stateMutability": "view",
      "type": "function"
    },
    {
      "inputs": [
        {
          "internalType": "uint256",
          "name": "_requestId",
          "type": "uint256"
        }
      ],
      "name": "getAnchorRecord",
      "outputs": [
        {
          "components": [
            {
              "internalType": "uint256",
              "name": "requestId",
              "type": "uint256"
            },
            {
              "internalType": "bytes32",
              "name": "verificationHash",
              "type": "bytes32"
            },
            {
              "internalType": "uint256",
              "name": "l1BlockNumber",
              "type": "uint256"
            },
            {
              "internalType": "uint256",
              "name": "timestamp",
              "type": "uint256"
            },
            {
              "internalType": "bool",
              "name": "anchored",
              "type": "bool"
            }
          ],
          "internalType": "struct VerificationAnchor.AnchorRecord",
          "name": "",
          "type": "tuple"
        }
      ],
      "stateMutability": "view",
      "type": "function"
    },
    {
      "inputs": [
        {
          "internalType": "bytes32",
          "name": "_hash",
          "type": "bytes32"
        }
      ],
      "name": "isHashAnchored",
      "outputs": [
        {
          "internalType": "bool",
          "name": "",
          "type": "bool"
        }
      ],
      "stateMutability": "view",
      "type": "function"
    },
    {
      "inputs": [],
      "name": "owner",
      "outputs": [
        {
          "internalType": "address",
          "name": "",
          "type": "address"
        }
      ],
      "stateMutability": "view",
      "type": "function"
    },
    {
      "inputs": [],
      "name": "renounceOwnership",
      "outputs": [],
      "stateMutability": "nonpayable",
      "type": "function"
    },
    {
      "inputs": [
        {
          "internalType": "address",
          "name": "_consensusEngine",
          "type": "address"
        }
      ],
      "name": "setConsensusEngine",
      "outputs": [],
      "stateMutability": "nonpayable",
      "type": "function"
    },
    {
      "inputs": [
        {
          "internalType": "address",
          "name": "newOwner",
          "type": "address"
        }
      ],
      "name": "transferOwnership",
      "outputs": [],
      "stateMutability": "nonpayable",
      "type": "function"
    }
  ],
  "bytecode": "0x608060405234801561001057600080fd5b50338061003757604051631e4fbdf760e01b81526000600482015260240160405180910390fd5b61004081610046565b50610096565b600080546001600160a01b038381166001600160a01b0319831681178455604051919092169283917f8be0079c531659141344cd1fd0a4f28419497f9722a3daafe3b4186f6b6457e09190a35050565b610851806100a56000396000f3fe608060405234801561001057600080fd5b506004361061009e5760003560e01c80638da5cb5b116100665780638da5cb5b1461012e578063904a2b3814610153578063e383467f14610166578063f2fde38b1461022f578063f5992bd81461024257600080fd5b806303c0ee60146100a35780631a3541b6146100db57806321762e8e146100f057806355e138fc14610103578063715018a614610126575b600080fd5b6100c66100b1366004610717565b60009081526002602052604090205460ff1690565b60405190151581526020015b60405180910390f35b6100ee6100e9366004610730565b6102ab565b005b6100ee6100fe36600461075c565b6104ad565b6100c6610111366004610717565b60026020526000908152604090205460ff1681565b6100ee6104d7565b6000546001600160a01b03165b6040516001600160a01b0390911681526020016100d2565b60035461013b906001600160a01b031681565b6101eb610174366004610717565b6040805160a0808201835260008083526020808401829052838501829052606080850183905260809485018390529582526001808252918590208551938401865280548452918201549083015260028101549382019390935260038301549381019390935260049091015460ff1615159082015290565b6040516100d29190600060a0820190508251825260208301516020830152604083015160408301526060830151606083015260808301511515608083015292915050565b6100ee61023d36600461075c565b6104eb565b610281610250366004610717565b6001602081905260009182526040909120805491810154600282015460038301546004909301549192909160ff1685565b6040805195865260208601949094529284019190915260608301521515608082015260a0016100d2565b6003546001600160a01b03163314806102ce57506000546001600160a01b031633145b6103105760405162461bcd60e51b815260206004820152600e60248201526d139bdd08185d5d1a1bdc9a5e995960921b60448201526064015b60405180910390fd5b8161034c5760405162461bcd60e51b815260206004820152600c60248201526b092dcecc2d8d2c840d0c2e6d60a31b6044820152606401610307565b60008281526002602052604090205460ff161561039e5760405162461bcd60e51b815260206004820152601060248201526f105b1c9958591e48185b98da1bdc995960821b6044820152606401610307565b600081116103e15760405162461bcd60e51b815260206004820152601060248201526f496e76616c6964204c3120626c6f636b60801b6044820152606401610307565b6040805160a081018252848152602080820185815282840185815242606080860182815260016080880181815260008d81528289528a812099518a5596518983015594516002808a01919091559151600389015593516004909701805497151560ff19988916179055898552855292869020805490951690911790935583518681529182018590529281019190915284917fbc98c0f96bb68cb01049743b01fc845ac1329e928c6e5831a979a07d33c555c9910160405180910390a26104a8838383610529565b505050565b6104b561069a565b600380546001600160a01b0319166001600160a01b0392909216919091179055565b6104df61069a565b6104e960006106c7565b565b6104f361069a565b6001600160a01b03811661051d57604051631e4fbdf760e01b815260006004820152602401610307565b610526816106c7565b50565b60408051602081018590529081018390526060810182905242608082015260009060a001604051602081830303815290604052905060006007602160991b016001600160a01b0316620f42403084620f424060405160240161058d939291906107b0565b60408051601f198184030181529181526020820180516001600160e01b0316633dbb202b60e01b179052516105c291906107ff565b60006040518083038160008787f1925050503d8060008114610600576040519150601f19603f3d011682016040523d82523d6000602084013e610605565b606091505b50509050806106565760405162461bcd60e51b815260206004820181905260248201527f4661696c656420746f2073656e64204c3120616e63686f72206d6573736167656044820152606401610307565b60408051858152620f4240602082015286917ff4377d7e326c921c52f521b923d97a0cb6f6140a5f994031f246c9e09692234e910160405180910390a25050505050565b6000546001600160a01b031633146104e95760405163118cdaa760e01b8152336004820152602401610307565b600080546001600160a01b038381166001600160a01b0319831681178455604051919092169283917f8be0079c531659141344cd1fd0a4f28419497f9722a3daafe3b4186f6b6457e09190a35050565b60006020828403121561072957600080fd5b5035919050565b60008060006060848603121561074557600080fd5b505081359360208301359350604090920135919050565b60006020828403121561076e57600080fd5b81356001600160a01b038116811461078557600080fd5b9392505050565b60005b838110156107a757818101518382015260200161078f565b50506000910152565b60018060a01b038416815260606020820152600083518060608401526107dd81608085016020880161078c565b62ffffff93909316604083015250601f91909101601f19160160800192915050565b6000825161081181846020870161078c565b919091019291505056fea26469706673582212204a3ad4aa7e0705abbe8c35b3a079f2e27d8d4f9574148fe88cb2fec57f5df92364736f6c63430008140033",
  "linkReferences": {},
  "deployedLinkReferences": {}
}