{
  "_format": "hh-sol-artifact-1",
  "contractName": "AssetRegistry",
  "sourceName": "contracts/core/AssetRegistry.sol",
  "abi": [
    {
      "inputs": [
        {
          "internalType": "address",
          "name": "_valuationOracle",
          "type": "address"
        }
      ],
      "stateMutability": "nonpayable",
      "type": "constructor"
    },
    {
      "inputs": [
        {
          "internalType": "address",
          "name": "owner",
          "type": "address"
        }
      ],
      "name": "OwnableInvalidOwner",
      "type": "error"
    },
    {
      "inputs": [
        {
          "internalType": "address",
          "name": "account",
          "type": "address"
        }
      ],
      "name": "OwnableUnauthorizedAccount",
      "type": "error"
    },
    {
      "anonymous": false,
      "inputs": [
        {
          "indexed": true,
          "internalType": "uint256",
          "name": "assetId",
          "type": "uint256"
        },
        {
          "indexed": true,
          "internalType": "uint256",
          "name": "requestId",
          "type": "uint256"
        },
        {
          "indexed": true,
          "internalType": "address",
          "name": "owner",
          "type": "address"
        },
        {
          "indexed": false,
          "internalType": "address",
          "name": "tokenAddress",
          "type": "address"
        },
        {
          "indexed": false,
          "internalType": "uint256",
          "name": "valuation",
          "type": "uint256"
        }
      ],
      "name": "AssetRegistered",
      "type": "event"
    },
    {
      "anonymous": false,
      "inputs": [
        {
          "indexed": true,
          "internalType": "uint256",
          "name": "assetId",
          "type": "uint256"
        },
        {
          "indexed": false,
          "internalType": "enum AssetRegistry.AssetStatus",
          "name": "newStatus",
          "type": "uint8"
        }
      ],
      "name": "AssetStatusChanged",
      "type": "event"
    },
    {
      "anonymous": false,
      "inputs": [
        {
          "indexed": true,
          "internalType": "uint256",
          "name": "assetId",
          "type": "uint256"
        },
        {
          "indexed": true,
          "internalType": "address",
          "name": "from",
          "type": "address"
        },
        {
          "indexed": true,
          "internalType": "address",
          "name": "to",
          "type": "address"
        }
      ],
      "name": "AssetTransferred",
      "type": "event"
    },
    {
      "anonymous": false,
      "inputs": [
        {
          "indexed": true,
          "internalType": "uint256",
          "name": "assetId",
          "type": "uint256"
        },
        {
          "indexed": false,
          "internalType": "uint256",
          "name": "newValuation",
          "type": "uint256"
        },
        {
          "indexed": false,
          "internalType": "uint256",
          "name": "confidence",
          "type": "uint256"
        }
      ],
      "name": "AssetUpdated",
      "type": "event"
    },
    {
      "anonymous": false,
      "inputs": [
        {
          "indexed": true,
          "internalType": "address",
          "name": "previousOwner",
          "type": "address"
        },
        {
          "indexed": true,
          "internalType": "address",
          "name": "newOwner",
          "type": "address"
        }
      ],
      "name": "OwnershipTransferred",
      "type": "event"
    },
    {
      "inputs": [
        {
          "internalType": "uint256",
          "name": "",
          "type": "uint256"
        }
      ],
      "name": "assets",
      "outputs": [
        {
          "internalType": "uint256",
          "name": "assetId",
          "type": "uint256"
        },
        {
          "internalType": "uint256",
          "name": "requestId",
          "type": "uint256"
        },
        {
          "internalType": "address",
          "name": "tokenAddress",
          "type": "address"
        },
        {
          "internalType": "address",
          "name": "owner",
          "type": "address"
        },
        {
          "internalType": "enum AssetRegistry.AssetType",
          "name": "assetType",
          "type": "uint8"
        },
        {
          "internalType": "string",
          "name": "location",
          "type": "string"
        },
        {
          "internalType": "uint256",
          "name": "valuation",
          "type": "uint256"
        },
        {
          "internalType": "uint256",
          "name": "confidence",
          "type": "uint256"
        },
        {
          "internalType": "bytes32",
          "name": "evidenceHash",
          "type": "bytes32"
        },
        {
          "internalType": "uint256",
          "name": "createdAt",
          "type": "uint256"
        },
        {
          "internalType": "uint256",
          "name": "lastUpdated",
          "type": "uint256"
        },
        {
          "internalType": "enum AssetRegistry.AssetStatus",
          "name": "status",
          "type": "uint8"
        }
      ],
      "stateMutability": "view",
      "type": "function"
    },
    {
      "inputs": [
        {
          "internalType": "uint256",
          "name": "_assetId",
          "type": "uint256"
        }
      ],
      "name": "getAsset",
      "outputs": [
        {
          "components": [
            {
              "internalType": "uint256",
              "name": "assetId",
              "type": "uint256"
            },
            {
              "internalType": "uint256",
              "name": "requestId",
              "type": "uint256"
            },
            {
              "internalType": "address",
              "name": "tokenAddress",
              "type": "address"
            },
            {
              "internalType": "address",
              "name": "owner",
              "type": "address"
            },
            {
              "internalType": "enum AssetRegistry.AssetType",
              "name": "assetType",
              "type": "uint8"
            },
            {
              "internalType": "string",
              "name": "location",
              "type": "string"
            },
            {
              "internalType": "uint256",
              "name": "valuation",
              "type": "uint256"
            },
            {
              "internalType": "uint256",
              "name": "confidence",
              "type": "uint256"
            },
            {
              "internalType": "bytes32",
              "name": "evidenceHash",
              "type": "bytes32"
            },
            {
              "internalType": "uint256",
              "name": "createdAt",
              "type": "uint256"
            },
            {
              "internalType": "uint256",
              "name": "lastUpdated",
              "type": "uint256"
            },
            {
              "internalType": "enum AssetRegistry.AssetStatus",
              "name": "status",
              "type": "uint8"
            }
          ],
          "internalType": "struct AssetRegistry.Asset",
          "name": "",
          "type": "tuple"
        }
      ],
      "stateMutability": "view",
      "type": "function"
    },
    {
      "inputs": [
        {
          "internalType": "uint256",
          "name": "_requestId",
          "type": "uint256"
        }
      ],
      "name": "getAssetByRequest",
      "outputs": [
        {
          "components": [
            {
              "internalType": "uint256",
              "name": "assetId",
              "type": "uint256"
            },
            {
              "internalType": "uint256",
              "name": "requestId",
              "type": "uint256"
            },
            {
              "internalType": "address",
              "name": "tokenAddress",
              "type": "address"
            },
            {
              "internalType": "address",
              "name": "owner",
              "type": "address"
            },
            {
              "internalType": "enum AssetRegistry.AssetType",
              "name": "assetType",
              "type": "uint8"
            },
            {
              "internalType": "string",
              "name": "location",
              "type": "string"
            },
            {
              "internalType": "uint256",
              "name": "valuation",
              "type": "uint256"
            },
            {
              "internalType": "uint256",
              "name": "confidence",
              "type": "uint256"
            },
            {
              "internalType": "bytes32",
              "name": "evidenceHash",
              "type": "bytes32"
            },
            {
              "internalType": "uint256",
              "name": "createdAt",
              "type": "uint256"
            },
            {
              "internalType": "uint256",
              "name": "lastUpdated",
              "type": "uint256"
            },
            {
              "internalType": "enum AssetRegistry.AssetStatus",
              "name": "status",
              "type": "uint8"
            }
          ],
          "internalType": "struct AssetRegistry.Asset",
          "name": "",
          "type": "tuple"
        }
      ],
      "stateMutability": "view",
      "type": "function"
    },
    {
      "inputs": [
        {
          "internalType": "address",
          "name": "_tokenAddress",
          "type": "address"
        }
      ],
      "name": "getAssetByToken",
      "outputs": [
        {
          "components": [
            {
              "internalType": "uint256",
              "name": "assetId",
              "type": "uint256"
            },
            {
              "internalType": "uint256",
              "name": "requestId",
              "type": "uint256"
            },
            {
              "internalType": "address",
              "name": "tokenAddress",
              "type": "address"
            },
            {
              "internalType": "address",
              "name": "owner",
              "type": "address"
            },
            {
              "internalType": "enum AssetRegistry.AssetType",
              "name": "assetType",
              "type": "uint8"
            },
            {
              "internalType": "string",
              "name": "location",
              "type": "string"
            },
            {
              "internalType": "uint256",
              "name": "valuation",
              "type": "uint256"
            },
            {
              "internalType": "uint256",
              "name": "confidence",
              "type": "uint256"
            },
            {
              "internalType": "bytes32",
              "name": "evidenceHash",
              "type": "bytes32"
            },
            {
              "internalType": "uint256",
              "name": "createdAt",
              "type": "uint256"
            },
            {
              "internalType": "uint256",
              "name": "lastUpdated",
              "type": "uint256"
            },
            {
              "internalType": "enum AssetRegistry.AssetStatus",
              "name": "status",
              "type": "uint8"
            }
          ],
          "internalType": "struct AssetRegistry.Asset",
          "name": "",
          "type": "tuple"
        }
      ],
      "stateMutability": "view",
      "type": "function"
    },
    {
      "inputs": [
        {
          "internalType": "address",
          "name": "_owner",
          "type": "address"
        }
      ],
      "name": "getAssetsByOwner",
      "outputs": [
        {
          "internalType": "uint256[]",
          "name": "",
          "type": "uint256[]"
        }
      ],
      "stateMutability": "view",
      "type": "function"
    },
    {
      "inputs": [],
      "name": "getTotalAssets",
      "outputs": [
        {
          "internalType": "uint256",
          "name": "",
          "type": "uint256"
        }
      ],
      "stateMutability": "view",
      "type": "function"
    },
    {
      "inputs": [],
      "name": "owner",
      "outputs": [
        {
          "internalType": "address",
          "name": "",
          "type": "address"
        }
      ],
      "stateMutability": "view",
      "type": "function"
    },
    {
      "inputs": [
        {
          "internalType": "address",
          "name": "",
          "type": "address"
        },
        {
          "internalType": "uint256",
          "name": "",
          "type": "uint256"
        }
      ],
      "name": "ownerAssets",
      "outputs": [
        {
          "internalType": "uint256",
          "name": "",
          "type": "uint256"
        }
      ],
      "stateMutability": "view",
      "type": "function"
    },
    {
      "inputs": [
        {
          "internalType": "uint256",
          "name": "_requestId",
          "type": "uint256"
        },
        {
          "internalType": "address",
          "name": "_tokenAddress",
          "type": "address"
        },
        {
          "internalType": "address",
          "name": "_owner",
          "type": "address"
        },
        {
          "internalType": "enum AssetRegistry.AssetType",
          "name": "_assetType",
          "type": "uint8"
        },
        {
          "internalType": "string",
          "name": "_location",
          "type": "string"
        },
        {
          "internalType": "uint256",
          "name": "_valuation",
          "type": "uint256"
        },
        {
          "internalType": "uint256",
          "name": "_confidence",
          "type": "uint256"
        },
        {
          "internalType": "bytes32",
          "name": "_evidenceHash",
          "type": "bytes32"
        }
      ],
      "name": "registerAsset",
      "outputs": [
        {
          "internalType": "uint256",
          "name": "",
          "type": "uint256"
        }
      ],
      "stateMutability": "nonpayable",
      "type": "function"
    },
    {
      "inputs": [],
      "name": "renounceOwnership",
      "outputs": [],
      "stateMutability": "nonpayable",
      "type": "function"
    },
    {
      "inputs": [
        {
          "internalType": "uint256",
          "name": "",
          "type": "uint256"
        }
      ],
      "name": "requestToAsset",
      "outputs": [
        {
          "internalType": "uint256",
          "name": "",
          "type": "uint256"
        }
      ],
      "stateMutability": "view",
      "type": "function"
    },
    {
      "inputs": [
        {
          "internalType": "address",
          "name": "_valuationOracle",
          "type": "address"
        }
      ],
      "name": "setValuationOracle",
      "outputs": [],
      "stateMutability": "nonpayable",
      "type": "function"
    },
    {
      "inputs": [
        {
          "internalType": "address",
          "name": "",
          "type": "address"
        }
      ],
      "name": "tokenToAsset",
      "outputs": [
        {
          "internalType": "uint256",
          "name": "",
          "type": "uint256"
        }
      ],
      "stateMutability": "view",
      "type": "function"
    },
    {
      "inputs": [
        {
          "internalType": "uint256",
          "name": "_assetId",
          "type": "uint256"
        },
        {
          "internalType": "address",
          "name": "_newOwner",
          "type": "address"
        }
      ],
      "name": "transferAsset",
      "outputs": [],
      "stateMutability": "nonpayable",
      "type": "function"
    },
    {
      "inputs": [
        {
          "internalType": "address",
          "name": "newOwner",
          "type": "address"
        }
      ],
      "name": "transferOwnership",
      "outputs": [],
      "stateMutability": "nonpayable",
      "type": "function"
    },
    {
      "inputs": [
        {
          "internalType": "uint256",
          "name": "_assetId",
          "type": "uint256"
        },
        {
          "internalType": "enum AssetRegistry.AssetStatus",
          "name": "_newStatus",
          "type": "uint8"
        }
      ],
      "name": "updateAssetStatus",
      "outputs": [],
      "stateMutability": "nonpayable",
      "type": "function"
    },
    {
      "inputs": [
        {
          "internalType": "uint256",
          "name": "_assetId",
          "type": "uint256"
        },
        {
          "internalType": "uint256",
          "name": "_newValuation",
          "type": "uint256"
        },
        {
          "internalType": "uint256",
          "name": "_confidence",
          "type": "uint256"
        },
        {
          "internalType": "bytes32",
          "name": "_evidenceHash",
          "type": "bytes32"
        }
      ],
      "name": "updateValuation",
      "outputs": [],
      "stateMutability": "nonpayable",
      "type": "function"
    },
    {
      "inputs": [],
      "name": "valuationOracle",
      "outputs": [
        {
          "internalType": "address",
          "name": "",
          "type": "address"
        }
      ],
      "stateMutability": "view",
      "type": "function"
    }
  ],
  "bytecode": "0x608060405234801561001057600080fd5b5060405161161738038061161783398101604081905261002f916100d9565b338061005557604051631e4fbdf760e01b81526000600482015260240160405180910390fd5b61005e81610089565b50600680546001600160a01b0319166001600160a01b03929092169190911790556000600155610109565b600080546001600160a01b038381166001600160a01b0319831681178455604051919092169283917f8be0079c531659141344cd1fd0a4f28419497f9722a3daafe3b4186f6b6457e09190a35050565b6000602082840312156100eb57600080fd5b81516001600160a01b038116811461010257600080fd5b9392505050565b6114ff806101186000396000f3fe608060405234801561001057600080fd5b50600436106101165760003560e01c80638da5cb5b116100a2578063d139f87411610071578063d139f8741461026a578063d1f694921461027d578063eac8f5b81461029d578063f2fde38b146102b0578063fa62ee8d146102c357600080fd5b80638da5cb5b146102085780638e2ec9f4146102195780639dec556c1461022c578063cf35bdd01461023f57600080fd5b80634ef573cd116100e95780634ef573cd146101a55780636e07302b146101b8578063715018a6146101c057806385dd3a11146101c85780638959ed15146101e857600080fd5b8063276f09341461011b5780632eb66a9c146101445780634554f3cf1461016f578063455bd95114610184575b600080fd5b61012e610129366004610ee1565b6102d6565b60405161013b9190610f03565b60405180910390f35b600654610157906001600160a01b031681565b6040516001600160a01b03909116815260200161013b565b61018261017d366004610f47565b610342565b005b610197610192366004610f7b565b610406565b60405190815260200161013b565b6101976101b3366004610fbb565b610437565b600154610197565b610182610694565b6101976101d6366004610ee1565b60056020526000908152604090205481565b6101fb6101f63660046110c9565b6106a8565b60405161013b9190611162565b6000546001600160a01b0316610157565b6101fb610227366004610ee1565b610860565b61018261023a366004610ee1565b6108a1565b61025261024d3660046110c9565b6108cb565b60405161013b9c9b9a99989796959493929190611236565b6101826102783660046112be565b6109ca565b61019761028b3660046110c9565b60046020526000908152604090205481565b6101fb6102ab3660046110c9565b610ac4565b6101826102be366004610ee1565b610c79565b6101826102d13660046112f0565b610cb7565b6001600160a01b03811660009081526003602090815260409182902080548351818402810184019094528084526060939283018282801561033657602002820191906000526020600020905b815481526020019060010190808311610322575b50505050509050919050565b61034a610de7565b60008281526002602052604081205490036103805760405162461bcd60e51b81526004016103779061131c565b60405180910390fd5b6000828152600260205260409020600a01805482919060ff191660018360038111156103ae576103ae6110e2565b021790555060008281526002602052604090819020426009909101555182907f686cbb6b476fac353118f8ae6a2e3fe7540fc87f6a84c97dcfee5cab91583d81906103fa908490611345565b60405180910390a25050565b6003602052816000526040600020818154811061042257600080fd5b90600052602060002001600091509150505481565b6000610441610de7565b6001600160a01b0387166104875760405162461bcd60e51b815260206004820152600d60248201526c24b73b30b634b21037bbb732b960991b6044820152606401610377565b600084116104cb5760405162461bcd60e51b815260206004820152601160248201527024b73b30b634b2103b30b63ab0ba34b7b760791b6044820152606401610377565b600089815260046020526040902054156105275760405162461bcd60e51b815260206004820152601a60248201527f5265717565737420616c726561647920726567697374657265640000000000006044820152606401610377565b600060016000815461053890611359565b91829055506000818152600260208190526040909120828155600181018d905590810180546001600160a01b03808e166001600160a01b031992831617909255600383018054928d169183168217815593945091928a9290916001600160a81b03191617600160a01b8360058111156105b3576105b36110e2565b0217905550600481016105c68882611409565b5060058101869055600681018590556007810184905542600882018190556009820155600a810180546000919060ff191660018302179055506001600160a01b0389811660008181526003602090815260408083208054600181018255908452828420018790558f835260048252808320879055938e1680835260058252918490208690558351918252810189905290918d9185917f6edbadbece3c56917a5f8afee03931b2b18609690cb8265068c1092d5757532d910160405180910390a4509998505050505050505050565b61069c610de7565b6106a66000610e14565b565b6106b0610e64565b600082815260046020526040812054908190036106df5760405162461bcd60e51b81526004016103779061131c565b60008181526002602081815260409283902083516101808101855281548152600182015492810192909252918201546001600160a01b039081169382019390935260038201549283166060820152916080830190600160a01b900460ff16600581111561074e5761074e6110e2565b600581111561075f5761075f6110e2565b815260200160048201805461077390611380565b80601f016020809104026020016040519081016040528092919081815260200182805461079f90611380565b80156107ec5780601f106107c1576101008083540402835291602001916107ec565b820191906000526020600020905b8154815290600101906020018083116107cf57829003601f168201915b505050918352505060058201546020820152600682015460408201526007820154606082015260088201546080820152600982015460a0820152600a82015460c09091019060ff166003811115610845576108456110e2565b6003811115610856576108566110e2565b9052509392505050565b610868610e64565b6001600160a01b038216600090815260056020526040812054908190036106df5760405162461bcd60e51b81526004016103779061131c565b6108a9610de7565b600680546001600160a01b0319166001600160a01b0392909216919091179055565b6002602081905260009182526040909120805460018201549282015460038301546004840180549395946001600160a01b039384169493831693600160a01b90930460ff169290919061091d90611380565b80601f016020809104026020016040519081016040528092919081815260200182805461094990611380565b80156109965780601f1061096b57610100808354040283529160200191610996565b820191906000526020600020905b81548152906001019060200180831161097957829003601f168201915b50505060058401546006850154600786015460088701546009880154600a9098015496979396929550909350919060ff168c565b6006546001600160a01b03163314806109ed57506000546001600160a01b031633145b610a2a5760405162461bcd60e51b815260206004820152600e60248201526d139bdd08185d5d1a1bdc9a5e995960921b6044820152606401610377565b6000848152600260205260408120549003610a575760405162461bcd60e51b81526004016103779061131c565b60008481526002602090815260409182902060058101869055600681018590556007810184905542600982015582518681529182018590529186917f7adf1bf709ca4e9ea2dc0d6595d4d78e107127135679932c87a3cdf555e549a6910160405180910390a25050505050565b610acc610e64565b6000828152600260205260408120549003610af95760405162461bcd60e51b81526004016103779061131c565b60008281526002602081815260409283902083516101808101855281548152600182015492810192909252918201546001600160a01b039081169382019390935260038201549283166060820152916080830190600160a01b900460ff166005811115610b6857610b686110e2565b6005811115610b7957610b796110e2565b8152602001600482018054610b8d90611380565b80601f0160208091040260200160405190810160405280929190818152602001828054610bb990611380565b8015610c065780601f10610bdb57610100808354040283529160200191610c06565b820191906000526020600020905b815481529060010190602001808311610be957829003601f168201915b505050918352505060058201546020820152600682015460408201526007820154606082015260088201546080820152600982015460a0820152600a82015460c09091019060ff166003811115610c5f57610c5f6110e2565b6003811115610c7057610c706110e2565b90525092915050565b610c81610de7565b6001600160a01b038116610cab57604051631e4fbdf760e01b815260006004820152602401610377565b610cb481610e14565b50565b6000828152600260205260409020600301546001600160a01b03163314610d125760405162461bcd60e51b815260206004820152600f60248201526e2737ba1030b9b9b2ba1037bbb732b960891b6044820152606401610377565b6001600160a01b038116610d5c5760405162461bcd60e51b815260206004820152601160248201527024b73b30b634b2103732bb9037bbb732b960791b6044820152606401610377565b6000828152600260209081526040808320600380820180546001600160a01b038881166001600160a01b0319831681179093554260099095019490945581875291855283862080546001810182559087529486209094018790559151911692839186917fa993eb3a10693085bc7afc1de0202310fbd5992b9e51edd263b198f62f20cdae91a4505050565b6000546001600160a01b031633146106a65760405163118cdaa760e01b8152336004820152602401610377565b600080546001600160a01b038381166001600160a01b0319831681178455604051919092169283917f8be0079c531659141344cd1fd0a4f28419497f9722a3daafe3b4186f6b6457e09190a35050565b604080516101808101825260008082526020820181905291810182905260608082018390526080820183905260a082015260c0810182905260e081018290526101008101829052610120810182905261014081018290529061016082015290565b80356001600160a01b0381168114610edc57600080fd5b919050565b600060208284031215610ef357600080fd5b610efc82610ec5565b9392505050565b6020808252825182820181905260009190848201906040850190845b81811015610f3b57835183529284019291840191600101610f1f565b50909695505050505050565b60008060408385031215610f5a57600080fd5b82359150602083013560048110610f7057600080fd5b809150509250929050565b60008060408385031215610f8e57600080fd5b610f9783610ec5565b946020939093013593505050565b634e487b7160e01b600052604160045260246000fd5b600080600080600080600080610100898b031215610fd857600080fd5b88359750610fe860208a01610ec5565b9650610ff660408a01610ec5565b955060608901356006811061100a57600080fd5b9450608089013567ffffffffffffffff8082111561102757600080fd5b818b0191508b601f83011261103b57600080fd5b81358181111561104d5761104d610fa5565b604051601f8201601f19908116603f0116810190838211818310171561107557611075610fa5565b816040528281528e602084870101111561108e57600080fd5b8260208601602083013760009281016020019290925250999c989b50969995989760a0870135975060c08701359660e0013595509350505050565b6000602082840312156110db57600080fd5b5035919050565b634e487b7160e01b600052602160045260246000fd5b60068110611108576111086110e2565b9052565b6000815180845260005b8181101561113257602081850181015186830182015201611116565b506000602082860101526020601f19601f83011685010191505092915050565b60048110611108576111086110e2565b6020815281516020820152602082015160408201526000604083015161119360608401826001600160a01b03169052565b5060608301516001600160a01b03811660808401525060808301516111bb60a08401826110f8565b5060a08301516101808060c08501526111d86101a085018361110c565b60c086015160e0868101919091528601516101008087019190915286015161012080870191909152860151610140808701919091528601516101608087019190915286015190925061122c82860182611152565b5090949350505050565b8c8152602081018c90526001600160a01b038b811660408301528a1660608201526000610180611269608084018c6110f8565b8060a084015261127b8184018b61110c565b9150508760c08301528660e08301528561010083015284610120830152836101408301526112ad610160830184611152565b9d9c50505050505050505050505050565b600080600080608085870312156112d457600080fd5b5050823594602084013594506040840135936060013592509050565b6000806040838503121561130357600080fd5b8235915061131360208401610ec5565b90509250929050565b6020808252600f908201526e105cdcd95d081b9bdd08199bdd5b99608a1b604082015260600190565b602081016113538284611152565b92915050565b60006001820161137957634e487b7160e01b600052601160045260246000fd5b5060010190565b600181811c9082168061139457607f821691505b6020821081036113b457634e487b7160e01b600052602260045260246000fd5b50919050565b601f82111561140457600081815260208120601f850160051c810160208610156113e15750805b601f850160051c820191505b81811015611400578281556001016113ed565b5050505b505050565b815167ffffffffffffffff81111561142357611423610fa5565b611437816114318454611380565b846113ba565b602080601f83116001811461146c57600084156114545750858301515b600019600386901b1c1916600185901b178555611400565b600085815260208120601f198616915b8281101561149b5788860151825594840194600190910190840161147c565b50858210156114b95787850151600019600388901b60f8161c191681555b5050505050600190811b0190555056fea264697066735822122073646157907251337df10701496291f751c226df798d8110078ba8f6d9c1a8fa64736f6c63430008140033",
  "linkReferences": {},
  "deployedLinkReferences": {}
}