{"contracts/compliance/ComplianceModule.sol":{"ComplianceModule":{"abi":[{"inputs":[],"stateMutability":"nonpayable","type":"constructor"},{"inputs":[{"internalType":"address","name":"owner","type":"address"}],"name":"OwnableInvalidOwner","type":"error"},{"inputs":[{"internalType":"address","name":"account","type":"address"}],"name":"OwnableUnauthorizedAccount","type":"error"},{"anonymous":false,"inputs":[{"indexed":true,"internalType":"address","name":"user","type":"address"},{"indexed":false,"internalType":"bool","name":"status","type":"bool"}],"name":"AccreditedInvestorSet","type":"event"},{"anonymous":false,"inputs":[{"indexed":false,"internalType":"enum ComplianceModule.JurisdictionType","name":"jurisdiction","type":"uint8"},{"indexed":false,"internalType":"bool","name":"restricted","type":"bool"}],"name":"JurisdictionRestricted","type":"event"},{"anonymous":false,"inputs":[{"indexed":true,"internalType":"address","name":"user","type":"address"}],"name":"KYCRevoked","type":"event"},{"anonymous":false,"inputs":[{"indexed":true,"internalType":"address","name":"user","type":"address"},{"indexed":false,"internalType":"enum ComplianceModule.JurisdictionType","name":"jurisdiction","type":"uint8"}],"name":"KYCVerified","type":"event"},{"anonymous":false,"inputs":[{"indexed":true,"internalType":"address","name":"previousOwner","type":"address"},{"indexed":true,"internalType":"address","name":"newOwner","type":"address"}],"name":"OwnershipTransferred","type":"event"},{"anonymous":false,"inputs":[{"indexed":true,"internalType":"address","name":"user","type":"address"},{"indexed":false,"internalType":"bool","name":"restricted","type":"bool"}],"name":"UserRestricted","type":"event"},{"inputs":[{"internalType":"address[]","name":"_users","type":"address[]"},{"internalType":"bool[]","name":"_verified","type":"bool[]"},{"internalType":"enum ComplianceModule.JurisdictionType[]","name":"_jurisdictions","type":"uint8[]"}],"name":"batchSetKYC","outputs":[],"stateMutability":"nonpayable","type":"function"},{"inputs":[{"internalType":"address","name":"_from","type":"address"},{"internalType":"address","name":"_to","type":"address"}],"name":"checkTransferAllowed","outputs":[{"internalType":"bool","name":"","type":"bool"}],"stateMutability":"view","type":"function"},{"inputs":[{"internalType":"address","name":"_user","type":"address"}],"name":"getUserCompliance","outputs":[{"components":[{"internalType":"bool","name":"kycVerified","type":"bool"},{"internalType":"bool","name":"accreditedInvestor","type":"bool"},{"internalType":"enum ComplianceModule.JurisdictionType","name":"jurisdiction","type":"uint8"},{"internalType":"uint256","name":"verificationDate","type":"uint256"},{"internalType":"uint256","name":"expirationDate","type":"uint256"},{"internalType":"bool","name":"restricted","type":"bool"}],"internalType":"struct ComplianceModule.ComplianceData","name":"","type":"tuple"}],"stateMutability":"view","type":"function"},{"inputs":[{"internalType":"address","name":"_user","type":"address"}],"name":"isAccredited","outputs":[{"internalType":"bool","name":"","type":"bool"}],"stateMutability":"view","type":"function"},{"inputs":[{"internalType":"address","name":"_user","type":"address"}],"name":"isKYCVerified","outputs":[{"internalType":"bool","name":"","type":"bool"}],"stateMutability":"view","type":"function"},{"inputs":[],"name":"kycValidityPeriod","outputs":[{"internalType":"uint256","name":"","type":"uint256"}],"stateMutability":"view","type":"function"},{"inputs":[],"name":"owner","outputs":[{"internalType":"address","name":"","type":"address"}],"stateMutability":"view","type":"function"},{"inputs":[],"name":"renounceOwnership","outputs":[],"stateMutability":"nonpayable","type":"function"},{"inputs":[{"internalType":"enum ComplianceModule.JurisdictionType","name":"","type":"uint8"}],"name":"restrictedJurisdictions","outputs":[{"internalType":"bool","name":"","type":"bool"}],"stateMutability":"view","type":"function"},{"inputs":[{"internalType":"address","name":"_user","type":"address"},{"internalType":"bool","name":"_status","type":"bool"}],"name":"setAccreditedInvestor","outputs":[],"stateMutability":"nonpayable","type":"function"},{"inputs":[{"internalType":"enum ComplianceModule.JurisdictionType","name":"_jurisdiction","type":"uint8"},{"internalType":"bool","name":"_restricted","type":"bool"}],"name":"setJurisdictionRestriction","outputs":[],"stateMutability":"nonpayable","type":"function"},{"inputs":[{"internalType":"address","name":"_user","type":"address"},{"internalType":"bool","name":"_verified","type":"bool"},{"internalType":"enum ComplianceModule.JurisdictionType","name":"_jurisdiction","type":"uint8"}],"name":"setKYCStatus","outputs":[],"stateMutability":"nonpayable","type":"function"},{"inputs":[{"internalType":"uint256","name":"_period","type":"uint256"}],"name":"setKYCValidityPeriod","outputs":[],"stateMutability":"nonpayable","type":"function"},{"inputs":[{"internalType":"address","name":"_user","type":"address"},{"internalType":"bool","name":"_restricted","type":"bool"}],"name":"setUserRestriction","outputs":[],"stateMutability":"nonpayable","type":"function"},{"inputs":[{"internalType":"address","name":"newOwner","type":"address"}],"name":"transferOwnership","outputs":[],"stateMutability":"nonpayable","type":"function"},{"inputs":[{"internalType":"address","name":"","type":"address"}],"name":"userCompliance","outputs":[{"internalType":"bool","name":"kycVerified","type":"bool"},{"internalType":"bool","name":"accreditedInvestor","type":"bool"},{"internalType":"enum ComplianceModule.JurisdictionType","name":"jurisdiction","type":"uint8"},{"internalType":"uint256","name":"verificationDate","type":"uint256"},{"internalType":"uint256","name":"expirationDate","type":"uint256"},{"internalType":"bool","name":"restricted","type":"bool"}],"stateMutability":"view","type":"function"}],"evm":{"bytecode":{"linkReferences":{},"object":"60806040526301e1338060035534801561001857600080fd5b50338061003f57604051631e4fbdf760e01b81526000600482015260240160405180910390fd5b6100488161004e565b5061009e565b600080546001600160a01b038381166001600160a01b0319831681178455604051919092169283917f8be0079c531659141344cd1fd0a4f28419497f9722a3daafe3b4186f6b6457e09190a35050565b610dfa806100ad6000396000f3fe608060405234801561001057600080fd5b50600436106101005760003560e01c8063732b7e8c11610097578063e04b2b8d11610066578063e04b2b8d14610276578063eda0ee8214610289578063f2fde38b146102ac578063fc4a30ca146102bf57600080fd5b8063732b7e8c146102225780638da5cb5b1461023557806391afeda514610250578063cc5d56751461026357600080fd5b806355179692116100d35780635517969214610186578063591aa483146101a657806366728c98146101b9578063715018a61461021a57600080fd5b806317c5e62c146101055780632d598d7b1461011a5780634bb6e7661461016057806354b7636e14610173575b600080fd5b610118610113366004610a32565b6102d6565b005b61014b610128366004610a67565b6001600160a01b0316600090815260016020526040902054610100900460ff1690565b60405190151581526020015b60405180910390f35b61014b61016e366004610a82565b6102e3565b61014b610181366004610a67565b610307565b610199610194366004610a67565b61040f565b6040516101579190610aed565b6101186101b4366004610b50565b6104d8565b6102086101c7366004610a67565b6001602081905260009182526040909120805491810154600282015460039092015460ff808516946101008104821694620100009091048216939290911686565b60405161015796959493929190610b7a565b61011861054b565b610118610230366004610bc6565b61055f565b6000546040516001600160a01b039091168152602001610157565b61011861025e366004610c55565b61065b565b610118610271366004610cef565b610882565b610118610284366004610b50565b610914565b61014b610297366004610d0b565b60026020526000908152604090205460ff1681565b6101186102ba366004610a67565b610977565b6102c860035481565b604051908152602001610157565b6102de6109b5565b600355565b60006102ee83610307565b80156102fe57506102fe82610307565b90505b92915050565b6001600160a01b0381166000908152600160209081526040808320815160c081018352815460ff8082161515835261010082048116151595830195909552859491938401916201000090910416600481111561036557610365610ab5565b600481111561037657610376610ab5565b8152600182015460208201526002820154604082015260039091015460ff161515606090910152805190915080156103b2575080608001514211155b80156103c057508060a00151155b8015610408575060026000826040015160048111156103e1576103e1610ab5565b60048111156103f2576103f2610ab5565b815260208101919091526040016000205460ff16155b9392505050565b6040805160c0808201835260008083526020808401829052838501829052606084018290526080840182905260a084018290526001600160a01b0386168252600181529084902084519283018552805460ff80821615158552610100820481161515938501939093529394929390928401916201000090910416600481111561049a5761049a610ab5565b60048111156104ab576104ab610ab5565b8152600182015460208201526002820154604082015260039091015460ff16151560609091015292915050565b6104e06109b5565b6001600160a01b0382166000818152600160205260409081902080548415156101000261ff0019909116179055517f2bf685be4d330998f97e2094ef535a35dfb76c0a75045ccd5d79bd237e7723ae9061053f90841515815260200190565b60405180910390a25050565b6105536109b5565b61055d60006109e2565b565b6105676109b5565b6001600160a01b0383166000908152600160205260409020805483151560ff198216811783558391839162ff0000191662ff00ff1990911617620100008360048111156105b6576105b6610ab5565b021790555042600182018190556003546105cf91610d3c565b6002820155821561062057836001600160a01b03167f5901206b39a68f7382670879562e87f070c1b1e9b39a271c4b1d1a4993a0ea0a836040516106139190610d4f565b60405180910390a2610655565b6040516001600160a01b038516907ffb4ca6a2470de95e9f648557fae63380f22c4b760bd27b0571caf5977a30278a90600090a25b50505050565b6106636109b5565b848314801561067157508481145b6106ba5760405162461bcd60e51b8152602060048201526015602482015274082e4e4c2f240d8cadccee8d040dad2e6dac2e8c6d605b1b60448201526064015b60405180910390fd5b60005b85811015610879576000600160008989858181106106dd576106dd610d5d565b90506020020160208101906106f29190610a67565b6001600160a01b03166001600160a01b03168152602001908152602001600020905085858381811061072657610726610d5d565b905060200201602081019061073b9190610d73565b815460ff191690151517815583838381811061075957610759610d5d565b905060200201602081019061076e9190610d0b565b8154829062ff000019166201000083600481111561078e5761078e610ab5565b021790555042600182018190556003546107a791610d3c565b60028201558585838181106107be576107be610d5d565b90506020020160208101906107d39190610d73565b15610866578787838181106107ea576107ea610d5d565b90506020020160208101906107ff9190610a67565b6001600160a01b03167f5901206b39a68f7382670879562e87f070c1b1e9b39a271c4b1d1a4993a0ea0a85858581811061083b5761083b610d5d565b90506020020160208101906108509190610d0b565b60405161085d9190610d4f565b60405180910390a25b508061087181610d8e565b9150506106bd565b50505050505050565b61088a6109b5565b80600260008460048111156108a1576108a1610ab5565b60048111156108b2576108b2610ab5565b815260200190815260200160002060006101000a81548160ff0219169083151502179055507ffbb10d36918ec2263bce03c853fbf409527eab535631872f8dac5d6b3c66e52d8282604051610908929190610da7565b60405180910390a15050565b61091c6109b5565b6001600160a01b038216600081815260016020908152604091829020600301805460ff191685151590811790915591519182527fa4c7c762da89739f7bccfe10baa362fcfb837b72d023d65eb491ef164a046902910161053f565b61097f6109b5565b6001600160a01b0381166109a957604051631e4fbdf760e01b8152600060048201526024016106b1565b6109b2816109e2565b50565b6000546001600160a01b0316331461055d5760405163118cdaa760e01b81523360048201526024016106b1565b600080546001600160a01b038381166001600160a01b0319831681178455604051919092169283917f8be0079c531659141344cd1fd0a4f28419497f9722a3daafe3b4186f6b6457e09190a35050565b600060208284031215610a4457600080fd5b5035919050565b80356001600160a01b0381168114610a6257600080fd5b919050565b600060208284031215610a7957600080fd5b6102fe82610a4b565b60008060408385031215610a9557600080fd5b610a9e83610a4b565b9150610aac60208401610a4b565b90509250929050565b634e487b7160e01b600052602160045260246000fd5b60058110610ae957634e487b7160e01b600052602160045260246000fd5b9052565b600060c0820190508251151582526020830151151560208301526040830151610b196040840182610acb565b50606083015160608301526080830151608083015260a0830151151560a083015292915050565b80358015158114610a6257600080fd5b60008060408385031215610b6357600080fd5b610b6c83610a4b565b9150610aac60208401610b40565b8615158152851515602082015260c08101610b986040830187610acb565b84606083015283608083015282151560a0830152979650505050505050565b803560058110610a6257600080fd5b600080600060608486031215610bdb57600080fd5b610be484610a4b565b9250610bf260208501610b40565b9150610c0060408501610bb7565b90509250925092565b60008083601f840112610c1b57600080fd5b50813567ffffffffffffffff811115610c3357600080fd5b6020830191508360208260051b8501011115610c4e57600080fd5b9250929050565b60008060008060008060608789031215610c6e57600080fd5b863567ffffffffffffffff80821115610c8657600080fd5b610c928a838b01610c09565b90985096506020890135915080821115610cab57600080fd5b610cb78a838b01610c09565b90965094506040890135915080821115610cd057600080fd5b50610cdd89828a01610c09565b979a9699509497509295939492505050565b60008060408385031215610d0257600080fd5b610b6c83610bb7565b600060208284031215610d1d57600080fd5b6102fe82610bb7565b634e487b7160e01b600052601160045260246000fd5b8082018082111561030157610301610d26565b602081016103018284610acb565b634e487b7160e01b600052603260045260246000fd5b600060208284031215610d8557600080fd5b6102fe82610b40565b600060018201610da057610da0610d26565b5060010190565b60408101610db58285610acb565b8215156020830152939250505056fea2646970667358221220d165ccf70d0ae8e162041bae369ef70d10ab8044fb43062b23c9f1a7cdac338b64736f6c63430008140033","opcodes":"PUSH1 0x80 PUSH1 0x40 MSTORE PUSH4 0x1E13380 PUSH1 0x3 SSTORE CALLVALUE DUP1 ISZERO PUSH2 0x18 JUMPI PUSH1 0x0 DUP1 REVERT JUMPDEST POP CALLER DUP1 PUSH2 0x3F JUMPI PUSH1 0x40 MLOAD PUSH4 0x1E4FBDF7 PUSH1 0xE0 SHL DUP2 MSTORE PUSH1 0x0 PUSH1 0x4 DUP3 ADD MSTORE PUSH1 0x24 ADD PUSH1 0x40 MLOAD DUP1 SWAP2 SUB SWAP1 REVERT JUMPDEST PUSH2 0x48 DUP2 PUSH2 0x4E JUMP JUMPDEST POP PUSH2 0x9E JUMP JUMPDEST PUSH1 0x0 DUP1 SLOAD PUSH1 0x1 PUSH1 0x1 PUSH1 0xA0 SHL SUB DUP4 DUP2 AND PUSH1 0x1 PUSH1 0x1 PUSH1 0xA0 SHL SUB NOT DUP4 AND DUP2 OR DUP5 SSTORE PUSH1 0x40 MLOAD SWAP2 SWAP1 SWAP3 AND SWAP3 DUP4 SWAP2 PUSH32 0x8BE0079C531659141344CD1FD0A4F28419497F9722A3DAAFE3B4186F6B6457E0 SWAP2 SWAP1 LOG3 POP POP JUMP JUMPDEST PUSH2 0xDFA DUP1 PUSH2 0xAD PUSH1 0x0 CODECOPY PUSH1 0x0 RETURN INVALID PUSH1 0x80 PUSH1 0x40 MSTORE CALLVALUE DUP1 ISZERO PUSH2 0x10 JUMPI PUSH1 0x0 DUP1 REVERT JUMPDEST POP PUSH1 0x4 CALLDATASIZE LT PUSH2 0x100 JUMPI PUSH1 0x0 CALLDATALOAD PUSH1 0xE0 SHR DUP1 PUSH4 0x732B7E8C GT PUSH2 0x97 JUMPI DUP1 PUSH4 0xE04B2B8D GT PUSH2 0x66 JUMPI DUP1 PUSH4 0xE04B2B8D EQ PUSH2 0x276 JUMPI DUP1 PUSH4 0xEDA0EE82 EQ PUSH2 0x289 JUMPI DUP1 PUSH4 0xF2FDE38B EQ PUSH2 0x2AC JUMPI DUP1 PUSH4 0xFC4A30CA EQ PUSH2 0x2BF JUMPI PUSH1 0x0 DUP1 REVERT JUMPDEST DUP1 PUSH4 0x732B7E8C EQ PUSH2 0x222 JUMPI DUP1 PUSH4 0x8DA5CB5B EQ PUSH2 0x235 JUMPI DUP1 PUSH4 0x91AFEDA5 EQ PUSH2 0x250 JUMPI DUP1 PUSH4 0xCC5D5675 EQ PUSH2 0x263 JUMPI PUSH1 0x0 DUP1 REVERT JUMPDEST DUP1 PUSH4 0x55179692 GT PUSH2 0xD3 JUMPI DUP1 PUSH4 0x55179692 EQ PUSH2 0x186 JUMPI DUP1 PUSH4 0x591AA483 EQ PUSH2 0x1A6 JUMPI DUP1 PUSH4 0x66728C98 EQ PUSH2 0x1B9 JUMPI DUP1 PUSH4 0x715018A6 EQ PUSH2 0x21A JUMPI PUSH1 0x0 DUP1 REVERT JUMPDEST DUP1 PUSH4 0x17C5E62C EQ PUSH2 0x105 JUMPI DUP1 PUSH4 0x2D598D7B EQ PUSH2 0x11A JUMPI DUP1 PUSH4 0x4BB6E766 EQ PUSH2 0x160 JUMPI DUP1 PUSH4 0x54B7636E EQ PUSH2 0x173 JUMPI JUMPDEST PUSH1 0x0 DUP1 REVERT JUMPDEST PUSH2 0x118 PUSH2 0x113 CALLDATASIZE PUSH1 0x4 PUSH2 0xA32 JUMP JUMPDEST PUSH2 0x2D6 JUMP JUMPDEST STOP JUMPDEST PUSH2 0x14B PUSH2 0x128 CALLDATASIZE PUSH1 0x4 PUSH2 0xA67 JUMP JUMPDEST PUSH1 0x1 PUSH1 0x1 PUSH1 0xA0 SHL SUB AND PUSH1 0x0 SWAP1 DUP2 MSTORE PUSH1 0x1 PUSH1 0x20 MSTORE PUSH1 0x40 SWAP1 KECCAK256 SLOAD PUSH2 0x100 SWAP1 DIV PUSH1 0xFF AND SWAP1 JUMP JUMPDEST PUSH1 0x40 MLOAD SWAP1 ISZERO ISZERO DUP2 MSTORE PUSH1 0x20 ADD JUMPDEST PUSH1 0x40 MLOAD DUP1 SWAP2 SUB SWAP1 RETURN JUMPDEST PUSH2 0x14B PUSH2 0x16E CALLDATASIZE PUSH1 0x4 PUSH2 0xA82 JUMP JUMPDEST PUSH2 0x2E3 JUMP JUMPDEST PUSH2 0x14B PUSH2 0x181 CALLDATASIZE PUSH1 0x4 PUSH2 0xA67 JUMP JUMPDEST PUSH2 0x307 JUMP JUMPDEST PUSH2 0x199 PUSH2 0x194 CALLDATASIZE PUSH1 0x4 PUSH2 0xA67 JUMP JUMPDEST PUSH2 0x40F JUMP JUMPDEST PUSH1 0x40 MLOAD PUSH2 0x157 SWAP2 SWAP1 PUSH2 0xAED JUMP JUMPDEST PUSH2 0x118 PUSH2 0x1B4 CALLDATASIZE PUSH1 0x4 PUSH2 0xB50 JUMP JUMPDEST PUSH2 0x4D8 JUMP JUMPDEST PUSH2 0x208 PUSH2 0x1C7 CALLDATASIZE PUSH1 0x4 PUSH2 0xA67 JUMP JUMPDEST PUSH1 0x1 PUSH1 0x20 DUP2 SWAP1 MSTORE PUSH1 0x0 SWAP2 DUP3 MSTORE PUSH1 0x40 SWAP1 SWAP2 KECCAK256 DUP1 SLOAD SWAP2 DUP2 ADD SLOAD PUSH1 0x2 DUP3 ADD SLOAD PUSH1 0x3 SWAP1 SWAP3 ADD SLOAD PUSH1 0xFF DUP1 DUP6 AND SWAP5 PUSH2 0x100 DUP2 DIV DUP3 AND SWAP5 PUSH3 0x10000 SWAP1 SWAP2 DIV DUP3 AND SWAP4 SWAP3 SWAP1 SWAP2 AND DUP7 JUMP JUMPDEST PUSH1 0x40 MLOAD PUSH2 0x157 SWAP7 SWAP6 SWAP5 SWAP4 SWAP3 SWAP2 SWAP1 PUSH2 0xB7A JUMP JUMPDEST PUSH2 0x118 PUSH2 0x54B JUMP JUMPDEST PUSH2 0x118 PUSH2 0x230 CALLDATASIZE PUSH1 0x4 PUSH2 0xBC6 JUMP JUMPDEST PUSH2 0x55F JUMP JUMPDEST PUSH1 0x0 SLOAD PUSH1 0x40 MLOAD PUSH1 0x1 PUSH1 0x1 PUSH1 0xA0 SHL SUB SWAP1 SWAP2 AND DUP2 MSTORE PUSH1 0x20 ADD PUSH2 0x157 JUMP JUMPDEST PUSH2 0x118 PUSH2 0x25E CALLDATASIZE PUSH1 0x4 PUSH2 0xC55 JUMP JUMPDEST PUSH2 0x65B JUMP JUMPDEST PUSH2 0x118 PUSH2 0x271 CALLDATASIZE PUSH1 0x4 PUSH2 0xCEF JUMP JUMPDEST PUSH2 0x882 JUMP JUMPDEST PUSH2 0x118 PUSH2 0x284 CALLDATASIZE PUSH1 0x4 PUSH2 0xB50 JUMP JUMPDEST PUSH2 0x914 JUMP JUMPDEST PUSH2 0x14B PUSH2 0x297 CALLDATASIZE PUSH1 0x4 PUSH2 0xD0B JUMP JUMPDEST PUSH1 0x2 PUSH1 0x20 MSTORE PUSH1 0x0 SWAP1 DUP2 MSTORE PUSH1 0x40 SWAP1 KECCAK256 SLOAD PUSH1 0xFF AND DUP2 JUMP JUMPDEST PUSH2 0x118 PUSH2 0x2BA CALLDATASIZE PUSH1 0x4 PUSH2 0xA67 JUMP JUMPDEST PUSH2 0x977 JUMP JUMPDEST PUSH2 0x2C8 PUSH1 0x3 SLOAD DUP2 JUMP JUMPDEST PUSH1 0x40 MLOAD SWAP1 DUP2 MSTORE PUSH1 0x20 ADD PUSH2 0x157 JUMP JUMPDEST PUSH2 0x2DE PUSH2 0x9B5 JUMP JUMPDEST PUSH1 0x3 SSTORE JUMP JUMPDEST PUSH1 0x0 PUSH2 0x2EE DUP4 PUSH2 0x307 JUMP JUMPDEST DUP1 ISZERO PUSH2 0x2FE JUMPI POP PUSH2 0x2FE DUP3 PUSH2 0x307 JUMP JUMPDEST SWAP1 POP JUMPDEST SWAP3 SWAP2 POP POP JUMP JUMPDEST PUSH1 0x1 PUSH1 0x1 PUSH1 0xA0 SHL SUB DUP2 AND PUSH1 0x0 SWAP1 DUP2 MSTORE PUSH1 0x1 PUSH1 0x20 SWAP1 DUP2 MSTORE PUSH1 0x40 DUP1 DUP4 KECCAK256 DUP2 MLOAD PUSH1 0xC0 DUP2 ADD DUP4 MSTORE DUP2 SLOAD PUSH1 0xFF DUP1 DUP3 AND ISZERO ISZERO DUP4 MSTORE PUSH2 0x100 DUP3 DIV DUP2 AND ISZERO ISZERO SWAP6 DUP4 ADD SWAP6 SWAP1 SWAP6 MSTORE DUP6 SWAP5 SWAP2 SWAP4 DUP5 ADD SWAP2 PUSH3 0x10000 SWAP1 SWAP2 DIV AND PUSH1 0x4 DUP2 GT ISZERO PUSH2 0x365 JUMPI PUSH2 0x365 PUSH2 0xAB5 JUMP JUMPDEST PUSH1 0x4 DUP2 GT ISZERO PUSH2 0x376 JUMPI PUSH2 0x376 PUSH2 0xAB5 JUMP JUMPDEST DUP2 MSTORE PUSH1 0x1 DUP3 ADD SLOAD PUSH1 0x20 DUP3 ADD MSTORE PUSH1 0x2 DUP3 ADD SLOAD PUSH1 0x40 DUP3 ADD MSTORE PUSH1 0x3 SWAP1 SWAP2 ADD SLOAD PUSH1 0xFF AND ISZERO ISZERO PUSH1 0x60 SWAP1 SWAP2 ADD MSTORE DUP1 MLOAD SWAP1 SWAP2 POP DUP1 ISZERO PUSH2 0x3B2 JUMPI POP DUP1 PUSH1 0x80 ADD MLOAD TIMESTAMP GT ISZERO JUMPDEST DUP1 ISZERO PUSH2 0x3C0 JUMPI POP DUP1 PUSH1 0xA0 ADD MLOAD ISZERO JUMPDEST DUP1 ISZERO PUSH2 0x408 JUMPI POP PUSH1 0x2 PUSH1 0x0 DUP3 PUSH1 0x40 ADD MLOAD PUSH1 0x4 DUP2 GT ISZERO PUSH2 0x3E1 JUMPI PUSH2 0x3E1 PUSH2 0xAB5 JUMP JUMPDEST PUSH1 0x4 DUP2 GT ISZERO PUSH2 0x3F2 JUMPI PUSH2 0x3F2 PUSH2 0xAB5 JUMP JUMPDEST DUP2 MSTORE PUSH1 0x20 DUP2 ADD SWAP2 SWAP1 SWAP2 MSTORE PUSH1 0x40 ADD PUSH1 0x0 KECCAK256 SLOAD PUSH1 0xFF AND ISZERO JUMPDEST SWAP4 SWAP3 POP POP POP JUMP JUMPDEST PUSH1 0x40 DUP1 MLOAD PUSH1 0xC0 DUP1 DUP3 ADD DUP4 MSTORE PUSH1 0x0 DUP1 DUP4 MSTORE PUSH1 0x20 DUP1 DUP5 ADD DUP3 SWAP1 MSTORE DUP4 DUP6 ADD DUP3 SWAP1 MSTORE PUSH1 0x60 DUP5 ADD DUP3 SWAP1 MSTORE PUSH1 0x80 DUP5 ADD DUP3 SWAP1 MSTORE PUSH1 0xA0 DUP5 ADD DUP3 SWAP1 MSTORE PUSH1 0x1 PUSH1 0x1 PUSH1 0xA0 SHL SUB DUP7 AND DUP3 MSTORE PUSH1 0x1 DUP2 MSTORE SWAP1 DUP5 SWAP1 KECCAK256 DUP5 MLOAD SWAP3 DUP4 ADD DUP6 MSTORE DUP1 SLOAD PUSH1 0xFF DUP1 DUP3 AND ISZERO ISZERO DUP6 MSTORE PUSH2 0x100 DUP3 DIV DUP2 AND ISZERO ISZERO SWAP4 DUP6 ADD SWAP4 SWAP1 SWAP4 MSTORE SWAP4 SWAP5 SWAP3 SWAP4 SWAP1 SWAP3 DUP5 ADD SWAP2 PUSH3 0x10000 SWAP1 SWAP2 DIV AND PUSH1 0x4 DUP2 GT ISZERO PUSH2 0x49A JUMPI PUSH2 0x49A PUSH2 0xAB5 JUMP JUMPDEST PUSH1 0x4 DUP2 GT ISZERO PUSH2 0x4AB JUMPI PUSH2 0x4AB PUSH2 0xAB5 JUMP JUMPDEST DUP2 MSTORE PUSH1 0x1 DUP3 ADD SLOAD PUSH1 0x20 DUP3 ADD MSTORE PUSH1 0x2 DUP3 ADD SLOAD PUSH1 0x40 DUP3 ADD MSTORE PUSH1 0x3 SWAP1 SWAP2 ADD SLOAD PUSH1 0xFF AND ISZERO ISZERO PUSH1 0x60 SWAP1 SWAP2 ADD MSTORE SWAP3 SWAP2 POP POP JUMP JUMPDEST PUSH2 0x4E0 PUSH2 0x9B5 JUMP JUMPDEST PUSH1 0x1 PUSH1 0x1 PUSH1 0xA0 SHL SUB DUP3 AND PUSH1 0x0 DUP2 DUP2 MSTORE PUSH1 0x1 PUSH1 0x20 MSTORE PUSH1 0x40 SWAP1 DUP2 SWAP1 KECCAK256 DUP1 SLOAD DUP5 ISZERO ISZERO PUSH2 0x100 MUL PUSH2 0xFF00 NOT SWAP1 SWAP2 AND OR SWAP1 SSTORE MLOAD PUSH32 0x2BF685BE4D330998F97E2094EF535A35DFB76C0A75045CCD5D79BD237E7723AE SWAP1 PUSH2 0x53F SWAP1 DUP5 ISZERO ISZERO DUP2 MSTORE PUSH1 0x20 ADD SWAP1 JUMP JUMPDEST PUSH1 0x40 MLOAD DUP1 SWAP2 SUB SWAP1 LOG2 POP POP JUMP JUMPDEST PUSH2 0x553 PUSH2 0x9B5 JUMP JUMPDEST PUSH2 0x55D PUSH1 0x0 PUSH2 0x9E2 JUMP JUMPDEST JUMP JUMPDEST PUSH2 0x567 PUSH2 0x9B5 JUMP JUMPDEST PUSH1 0x1 PUSH1 0x1 PUSH1 0xA0 SHL SUB DUP4 AND PUSH1 0x0 SWAP1 DUP2 MSTORE PUSH1 0x1 PUSH1 0x20 MSTORE PUSH1 0x40 SWAP1 KECCAK256 DUP1 SLOAD DUP4 ISZERO ISZERO PUSH1 0xFF NOT DUP3 AND DUP2 OR DUP4 SSTORE DUP4 SWAP2 DUP4 SWAP2 PUSH3 0xFF0000 NOT AND PUSH3 0xFF00FF NOT SWAP1 SWAP2 AND OR PUSH3 0x10000 DUP4 PUSH1 0x4 DUP2 GT ISZERO PUSH2 0x5B6 JUMPI PUSH2 0x5B6 PUSH2 0xAB5 JUMP JUMPDEST MUL OR SWAP1 SSTORE POP TIMESTAMP PUSH1 0x1 DUP3 ADD DUP2 SWAP1 SSTORE PUSH1 0x3 SLOAD PUSH2 0x5CF SWAP2 PUSH2 0xD3C JUMP JUMPDEST PUSH1 0x2 DUP3 ADD SSTORE DUP3 ISZERO PUSH2 0x620 JUMPI DUP4 PUSH1 0x1 PUSH1 0x1 PUSH1 0xA0 SHL SUB AND PUSH32 0x5901206B39A68F7382670879562E87F070C1B1E9B39A271C4B1D1A4993A0EA0A DUP4 PUSH1 0x40 MLOAD PUSH2 0x613 SWAP2 SWAP1 PUSH2 0xD4F JUMP JUMPDEST PUSH1 0x40 MLOAD DUP1 SWAP2 SUB SWAP1 LOG2 PUSH2 0x655 JUMP JUMPDEST PUSH1 0x40 MLOAD PUSH1 0x1 PUSH1 0x1 PUSH1 0xA0 SHL SUB DUP6 AND SWAP1 PUSH32 0xFB4CA6A2470DE95E9F648557FAE63380F22C4B760BD27B0571CAF5977A30278A SWAP1 PUSH1 0x0 SWAP1 LOG2 JUMPDEST POP POP POP POP JUMP JUMPDEST PUSH2 0x663 PUSH2 0x9B5 JUMP JUMPDEST DUP5 DUP4 EQ DUP1 ISZERO PUSH2 0x671 JUMPI POP DUP5 DUP2 EQ JUMPDEST PUSH2 0x6BA JUMPI PUSH1 0x40 MLOAD PUSH3 0x461BCD PUSH1 0xE5 SHL DUP2 MSTORE PUSH1 0x20 PUSH1 0x4 DUP3 ADD MSTORE PUSH1 0x15 PUSH1 0x24 DUP3 ADD MSTORE PUSH21 0x82E4E4C2F240D8CADCCEE8D040DAD2E6DAC2E8C6D PUSH1 0x5B SHL PUSH1 0x44 DUP3 ADD MSTORE PUSH1 0x64 ADD JUMPDEST PUSH1 0x40 MLOAD DUP1 SWAP2 SUB SWAP1 REVERT JUMPDEST PUSH1 0x0 JUMPDEST DUP6 DUP2 LT ISZERO PUSH2 0x879 JUMPI PUSH1 0x0 PUSH1 0x1 PUSH1 0x0 DUP10 DUP10 DUP6 DUP2 DUP2 LT PUSH2 0x6DD JUMPI PUSH2 0x6DD PUSH2 0xD5D JUMP JUMPDEST SWAP1 POP PUSH1 0x20 MUL ADD PUSH1 0x20 DUP2 ADD SWAP1 PUSH2 0x6F2 SWAP2 SWAP1 PUSH2 0xA67 JUMP JUMPDEST PUSH1 0x1 PUSH1 0x1 PUSH1 0xA0 SHL SUB AND PUSH1 0x1 PUSH1 0x1 PUSH1 0xA0 SHL SUB AND DUP2 MSTORE PUSH1 0x20 ADD SWAP1 DUP2 MSTORE PUSH1 0x20 ADD PUSH1 0x0 KECCAK256 SWAP1 POP DUP6 DUP6 DUP4 DUP2 DUP2 LT PUSH2 0x726 JUMPI PUSH2 0x726 PUSH2 0xD5D JUMP JUMPDEST SWAP1 POP PUSH1 0x20 MUL ADD PUSH1 0x20 DUP2 ADD SWAP1 PUSH2 0x73B SWAP2 SWAP1 PUSH2 0xD73 JUMP JUMPDEST DUP2 SLOAD PUSH1 0xFF NOT AND SWAP1 ISZERO ISZERO OR DUP2 SSTORE DUP4 DUP4 DUP4 DUP2 DUP2 LT PUSH2 0x759 JUMPI PUSH2 0x759 PUSH2 0xD5D JUMP JUMPDEST SWAP1 POP PUSH1 0x20 MUL ADD PUSH1 0x20 DUP2 ADD SWAP1 PUSH2 0x76E SWAP2 SWAP1 PUSH2 0xD0B JUMP JUMPDEST DUP2 SLOAD DUP3 SWAP1 PUSH3 0xFF0000 NOT AND PUSH3 0x10000 DUP4 PUSH1 0x4 DUP2 GT ISZERO PUSH2 0x78E JUMPI PUSH2 0x78E PUSH2 0xAB5 JUMP JUMPDEST MUL OR SWAP1 SSTORE POP TIMESTAMP PUSH1 0x1 DUP3 ADD DUP2 SWAP1 SSTORE PUSH1 0x3 SLOAD PUSH2 0x7A7 SWAP2 PUSH2 0xD3C JUMP JUMPDEST PUSH1 0x2 DUP3 ADD SSTORE DUP6 DUP6 DUP4 DUP2 DUP2 LT PUSH2 0x7BE JUMPI PUSH2 0x7BE PUSH2 0xD5D JUMP JUMPDEST SWAP1 POP PUSH1 0x20 MUL ADD PUSH1 0x20 DUP2 ADD SWAP1 PUSH2 0x7D3 SWAP2 SWAP1 PUSH2 0xD73 JUMP JUMPDEST ISZERO PUSH2 0x866 JUMPI DUP8 DUP8 DUP4 DUP2 DUP2 LT PUSH2 0x7EA JUMPI PUSH2 0x7EA PUSH2 0xD5D JUMP JUMPDEST SWAP1 POP PUSH1 0x20 MUL ADD PUSH1 0x20 DUP2 ADD SWAP1 PUSH2 0x7FF SWAP2 SWAP1 PUSH2 0xA67 JUMP JUMPDEST PUSH1 0x1 PUSH1 0x1 PUSH1 0xA0 SHL SUB AND PUSH32 0x5901206B39A68F7382670879562E87F070C1B1E9B39A271C4B1D1A4993A0EA0A DUP6 DUP6 DUP6 DUP2 DUP2 LT PUSH2 0x83B JUMPI PUSH2 0x83B PUSH2 0xD5D JUMP JUMPDEST SWAP1 POP PUSH1 0x20 MUL ADD PUSH1 0x20 DUP2 ADD SWAP1 PUSH2 0x850 SWAP2 SWAP1 PUSH2 0xD0B JUMP JUMPDEST PUSH1 0x40 MLOAD PUSH2 0x85D SWAP2 SWAP1 PUSH2 0xD4F JUMP JUMPDEST PUSH1 0x40 MLOAD DUP1 SWAP2 SUB SWAP1 LOG2 JUMPDEST POP DUP1 PUSH2 0x871 DUP2 PUSH2 0xD8E JUMP JUMPDEST SWAP2 POP POP PUSH2 0x6BD JUMP JUMPDEST POP POP POP POP POP POP POP JUMP JUMPDEST PUSH2 0x88A PUSH2 0x9B5 JUMP JUMPDEST DUP1 PUSH1 0x2 PUSH1 0x0 DUP5 PUSH1 0x4 DUP2 GT ISZERO PUSH2 0x8A1 JUMPI PUSH2 0x8A1 PUSH2 0xAB5 JUMP JUMPDEST PUSH1 0x4 DUP2 GT ISZERO PUSH2 0x8B2 JUMPI PUSH2 0x8B2 PUSH2 0xAB5 JUMP JUMPDEST DUP2 MSTORE PUSH1 0x20 ADD SWAP1 DUP2 MSTORE PUSH1 0x20 ADD PUSH1 0x0 KECCAK256 PUSH1 0x0 PUSH2 0x100 EXP DUP2 SLOAD DUP2 PUSH1 0xFF MUL NOT AND SWAP1 DUP4 ISZERO ISZERO MUL OR SWAP1 SSTORE POP PUSH32 0xFBB10D36918EC2263BCE03C853FBF409527EAB535631872F8DAC5D6B3C66E52D DUP3 DUP3 PUSH1 0x40 MLOAD PUSH2 0x908 SWAP3 SWAP2 SWAP1 PUSH2 0xDA7 JUMP JUMPDEST PUSH1 0x40 MLOAD DUP1 SWAP2 SUB SWAP1 LOG1 POP POP JUMP JUMPDEST PUSH2 0x91C PUSH2 0x9B5 JUMP JUMPDEST PUSH1 0x1 PUSH1 0x1 PUSH1 0xA0 SHL SUB DUP3 AND PUSH1 0x0 DUP2 DUP2 MSTORE PUSH1 0x1 PUSH1 0x20 SWAP1 DUP2 MSTORE PUSH1 0x40 SWAP2 DUP3 SWAP1 KECCAK256 PUSH1 0x3 ADD DUP1 SLOAD PUSH1 0xFF NOT AND DUP6 ISZERO ISZERO SWAP1 DUP2 OR SWAP1 SWAP2 SSTORE SWAP2 MLOAD SWAP2 DUP3 MSTORE PUSH32 0xA4C7C762DA89739F7BCCFE10BAA362FCFB837B72D023D65EB491EF164A046902 SWAP2 ADD PUSH2 0x53F JUMP JUMPDEST PUSH2 0x97F PUSH2 0x9B5 JUMP JUMPDEST PUSH1 0x1 PUSH1 0x1 PUSH1 0xA0 SHL SUB DUP2 AND PUSH2 0x9A9 JUMPI PUSH1 0x40 MLOAD PUSH4 0x1E4FBDF7 PUSH1 0xE0 SHL DUP2 MSTORE PUSH1 0x0 PUSH1 0x4 DUP3 ADD MSTORE PUSH1 0x24 ADD PUSH2 0x6B1 JUMP JUMPDEST PUSH2 0x9B2 DUP2 PUSH2 0x9E2 JUMP JUMPDEST POP JUMP JUMPDEST PUSH1 0x0 SLOAD PUSH1 0x1 PUSH1 0x1 PUSH1 0xA0 SHL SUB AND CALLER EQ PUSH2 0x55D JUMPI PUSH1 0x40 MLOAD PUSH4 0x118CDAA7 PUSH1 0xE0 SHL DUP2 MSTORE CALLER PUSH1 0x4 DUP3 ADD MSTORE PUSH1 0x24 ADD PUSH2 0x6B1 JUMP JUMPDEST PUSH1 0x0 DUP1 SLOAD PUSH1 0x1 PUSH1 0x1 PUSH1 0xA0 SHL SUB DUP4 DUP2 AND PUSH1 0x1 PUSH1 0x1 PUSH1 0xA0 SHL SUB NOT DUP4 AND DUP2 OR DUP5 SSTORE PUSH1 0x40 MLOAD SWAP2 SWAP1 SWAP3 AND SWAP3 DUP4 SWAP2 PUSH32 0x8BE0079C531659141344CD1FD0A4F28419497F9722A3DAAFE3B4186F6B6457E0 SWAP2 SWAP1 LOG3 POP POP JUMP JUMPDEST PUSH1 0x0 PUSH1 0x20 DUP3 DUP5 SUB SLT ISZERO PUSH2 0xA44 JUMPI PUSH1 0x0 DUP1 REVERT JUMPDEST POP CALLDATALOAD SWAP2 SWAP1 POP JUMP JUMPDEST DUP1 CALLDATALOAD PUSH1 0x1 PUSH1 0x1 PUSH1 0xA0 SHL SUB DUP2 AND DUP2 EQ PUSH2 0xA62 JUMPI PUSH1 0x0 DUP1 REVERT JUMPDEST SWAP2 SWAP1 POP JUMP JUMPDEST PUSH1 0x0 PUSH1 0x20 DUP3 DUP5 SUB SLT ISZERO PUSH2 0xA79 JUMPI PUSH1 0x0 DUP1 REVERT JUMPDEST PUSH2 0x2FE DUP3 PUSH2 0xA4B JUMP JUMPDEST PUSH1 0x0 DUP1 PUSH1 0x40 DUP4 DUP6 SUB SLT ISZERO PUSH2 0xA95 JUMPI PUSH1 0x0 DUP1 REVERT JUMPDEST PUSH2 0xA9E DUP4 PUSH2 0xA4B JUMP JUMPDEST SWAP2 POP PUSH2 0xAAC PUSH1 0x20 DUP5 ADD PUSH2 0xA4B JUMP JUMPDEST SWAP1 POP SWAP3 POP SWAP3 SWAP1 POP JUMP JUMPDEST PUSH4 0x4E487B71 PUSH1 0xE0 SHL PUSH1 0x0 MSTORE PUSH1 0x21 PUSH1 0x4 MSTORE PUSH1 0x24 PUSH1 0x0 REVERT JUMPDEST PUSH1 0x5 DUP2 LT PUSH2 0xAE9 JUMPI PUSH4 0x4E487B71 PUSH1 0xE0 SHL PUSH1 0x0 MSTORE PUSH1 0x21 PUSH1 0x4 MSTORE PUSH1 0x24 PUSH1 0x0 REVERT JUMPDEST SWAP1 MSTORE JUMP JUMPDEST PUSH1 0x0 PUSH1 0xC0 DUP3 ADD SWAP1 POP DUP3 MLOAD ISZERO ISZERO DUP3 MSTORE PUSH1 0x20 DUP4 ADD MLOAD ISZERO ISZERO PUSH1 0x20 DUP4 ADD MSTORE PUSH1 0x40 DUP4 ADD MLOAD PUSH2 0xB19 PUSH1 0x40 DUP5 ADD DUP3 PUSH2 0xACB JUMP JUMPDEST POP PUSH1 0x60 DUP4 ADD MLOAD PUSH1 0x60 DUP4 ADD MSTORE PUSH1 0x80 DUP4 ADD MLOAD PUSH1 0x80 DUP4 ADD MSTORE PUSH1 0xA0 DUP4 ADD MLOAD ISZERO ISZERO PUSH1 0xA0 DUP4 ADD MSTORE SWAP3 SWAP2 POP POP JUMP JUMPDEST DUP1 CALLDATALOAD DUP1 ISZERO ISZERO DUP2 EQ PUSH2 0xA62 JUMPI PUSH1 0x0 DUP1 REVERT JUMPDEST PUSH1 0x0 DUP1 PUSH1 0x40 DUP4 DUP6 SUB SLT ISZERO PUSH2 0xB63 JUMPI PUSH1 0x0 DUP1 REVERT JUMPDEST PUSH2 0xB6C DUP4 PUSH2 0xA4B JUMP JUMPDEST SWAP2 POP PUSH2 0xAAC PUSH1 0x20 DUP5 ADD PUSH2 0xB40 JUMP JUMPDEST DUP7 ISZERO ISZERO DUP2 MSTORE DUP6 ISZERO ISZERO PUSH1 0x20 DUP3 ADD MSTORE PUSH1 0xC0 DUP2 ADD PUSH2 0xB98 PUSH1 0x40 DUP4 ADD DUP8 PUSH2 0xACB JUMP JUMPDEST DUP5 PUSH1 0x60 DUP4 ADD MSTORE DUP4 PUSH1 0x80 DUP4 ADD MSTORE DUP3 ISZERO ISZERO PUSH1 0xA0 DUP4 ADD MSTORE SWAP8 SWAP7 POP POP POP POP POP POP POP JUMP JUMPDEST DUP1 CALLDATALOAD PUSH1 0x5 DUP2 LT PUSH2 0xA62 JUMPI PUSH1 0x0 DUP1 REVERT JUMPDEST PUSH1 0x0 DUP1 PUSH1 0x0 PUSH1 0x60 DUP5 DUP7 SUB SLT ISZERO PUSH2 0xBDB JUMPI PUSH1 0x0 DUP1 REVERT JUMPDEST PUSH2 0xBE4 DUP5 PUSH2 0xA4B JUMP JUMPDEST SWAP3 POP PUSH2 0xBF2 PUSH1 0x20 DUP6 ADD PUSH2 0xB40 JUMP JUMPDEST SWAP2 POP PUSH2 0xC00 PUSH1 0x40 DUP6 ADD PUSH2 0xBB7 JUMP JUMPDEST SWAP1 POP SWAP3 POP SWAP3 POP SWAP3 JUMP JUMPDEST PUSH1 0x0 DUP1 DUP4 PUSH1 0x1F DUP5 ADD SLT PUSH2 0xC1B JUMPI PUSH1 0x0 DUP1 REVERT JUMPDEST POP DUP2 CALLDATALOAD PUSH8 0xFFFFFFFFFFFFFFFF DUP2 GT ISZERO PUSH2 0xC33 JUMPI PUSH1 0x0 DUP1 REVERT JUMPDEST PUSH1 0x20 DUP4 ADD SWAP2 POP DUP4 PUSH1 0x20 DUP3 PUSH1 0x5 SHL DUP6 ADD ADD GT ISZERO PUSH2 0xC4E JUMPI PUSH1 0x0 DUP1 REVERT JUMPDEST SWAP3 POP SWAP3 SWAP1 POP JUMP JUMPDEST PUSH1 0x0 DUP1 PUSH1 0x0 DUP1 PUSH1 0x0 DUP1 PUSH1 0x60 DUP8 DUP10 SUB SLT ISZERO PUSH2 0xC6E JUMPI PUSH1 0x0 DUP1 REVERT JUMPDEST DUP7 CALLDATALOAD PUSH8 0xFFFFFFFFFFFFFFFF DUP1 DUP3 GT ISZERO PUSH2 0xC86 JUMPI PUSH1 0x0 DUP1 REVERT JUMPDEST PUSH2 0xC92 DUP11 DUP4 DUP12 ADD PUSH2 0xC09 JUMP JUMPDEST SWAP1 SWAP9 POP SWAP7 POP PUSH1 0x20 DUP10 ADD CALLDATALOAD SWAP2 POP DUP1 DUP3 GT ISZERO PUSH2 0xCAB JUMPI PUSH1 0x0 DUP1 REVERT JUMPDEST PUSH2 0xCB7 DUP11 DUP4 DUP12 ADD PUSH2 0xC09 JUMP JUMPDEST SWAP1 SWAP7 POP SWAP5 POP PUSH1 0x40 DUP10 ADD CALLDATALOAD SWAP2 POP DUP1 DUP3 GT ISZERO PUSH2 0xCD0 JUMPI PUSH1 0x0 DUP1 REVERT JUMPDEST POP PUSH2 0xCDD DUP10 DUP3 DUP11 ADD PUSH2 0xC09 JUMP JUMPDEST SWAP8 SWAP11 SWAP7 SWAP10 POP SWAP5 SWAP8 POP SWAP3 SWAP6 SWAP4 SWAP5 SWAP3 POP POP POP JUMP JUMPDEST PUSH1 0x0 DUP1 PUSH1 0x40 DUP4 DUP6 SUB SLT ISZERO PUSH2 0xD02 JUMPI PUSH1 0x0 DUP1 REVERT JUMPDEST PUSH2 0xB6C DUP4 PUSH2 0xBB7 JUMP JUMPDEST PUSH1 0x0 PUSH1 0x20 DUP3 DUP5 SUB SLT ISZERO PUSH2 0xD1D JUMPI PUSH1 0x0 DUP1 REVERT JUMPDEST PUSH2 0x2FE DUP3 PUSH2 0xBB7 JUMP JUMPDEST PUSH4 0x4E487B71 PUSH1 0xE0 SHL PUSH1 0x0 MSTORE PUSH1 0x11 PUSH1 0x4 MSTORE PUSH1 0x24 PUSH1 0x0 REVERT JUMPDEST DUP1 DUP3 ADD DUP1 DUP3 GT ISZERO PUSH2 0x301 JUMPI PUSH2 0x301 PUSH2 0xD26 JUMP JUMPDEST PUSH1 0x20 DUP2 ADD PUSH2 0x301 DUP3 DUP5 PUSH2 0xACB JUMP JUMPDEST PUSH4 0x4E487B71 PUSH1 0xE0 SHL PUSH1 0x0 MSTORE PUSH1 0x32 PUSH1 0x4 MSTORE PUSH1 0x24 PUSH1 0x0 REVERT JUMPDEST PUSH1 0x0 PUSH1 0x20 DUP3 DUP5 SUB SLT ISZERO PUSH2 0xD85 JUMPI PUSH1 0x0 DUP1 REVERT JUMPDEST PUSH2 0x2FE DUP3 PUSH2 0xB40 JUMP JUMPDEST PUSH1 0x0 PUSH1 0x1 DUP3 ADD PUSH2 0xDA0 JUMPI PUSH2 0xDA0 PUSH2 0xD26 JUMP JUMPDEST POP PUSH1 0x1 ADD SWAP1 JUMP JUMPDEST PUSH1 0x40 DUP2 ADD PUSH2 0xDB5 DUP3 DUP6 PUSH2 0xACB JUMP JUMPDEST DUP3 ISZERO ISZERO PUSH1 0x20 DUP4 ADD MSTORE SWAP4 SWAP3 POP POP POP JUMP INVALID LOG2 PUSH5 0x6970667358 0x22 SLT KECCAK256 0xD1 PUSH6 0xCCF70D0AE8E1 PUSH3 0x41BAE CALLDATASIZE SWAP15 0xF7 0xD LT 0xAB DUP1 PREVRANDAO 0xFB NUMBER MOD 0x2B 0x23 0xC9 CALL 0xA7 0xCD 0xAC CALLER DUP12 PUSH5 0x736F6C6343 STOP ADDMOD EQ STOP CALLER "},"methodIdentifiers":{"batchSetKYC(address[],bool[],uint8[])":"91afeda5","checkTransferAllowed(address,address)":"4bb6e766","getUserCompliance(address)":"55179692","isAccredited(address)":"2d598d7b","isKYCVerified(address)":"54b7636e","kycValidityPeriod()":"fc4a30ca","owner()":"8da5cb5b","renounceOwnership()":"715018a6","restrictedJurisdictions(uint8)":"eda0ee82","setAccreditedInvestor(address,bool)":"591aa483","setJurisdictionRestriction(uint8,bool)":"cc5d5675","setKYCStatus(address,bool,uint8)":"732b7e8c","setKYCValidityPeriod(uint256)":"17c5e62c","setUserRestriction(address,bool)":"e04b2b8d","transferOwnership(address)":"f2fde38b","userCompliance(address)":"66728c98"}}}}}